S02300006D61747465722D73696C6162732D73656E736F722D6578616D706C652E733337B9
S3150800600000000420B9C7010895C701087973030879
S3150800601067B1000895C7010895C7010895C7010823
S3150800602095C7010895C7010895C70108C11C02084C
S3150800603095C7010878070020611C0208AFC7000849
S31508006040356E000895C7010895C7010895C7010868
S3150800605095C7010895C7010895C7010895C701089E
S3150800606095C7010895C7010895C701080D7D03085E
S3150800607095C7010895C7010895C7010895C701087E
S3150800608095C7010895C7010895C7010895C701086E
S3150800609095C701081176000895C7010895C7010834
S315080060A095C7010825780008FD77000895C70108F7
S315080060B095C701086DED0B080DF80B08C5F70B0819
S315080060C0C1F70B08A1EF0B0809F80B08C9F70B086D
S315080060D0E1F70B08CDF70B084DF80B08B9F80B08D4
S315080060E095C7010895C7010895C7010895C701080E
S315080060F0B116020895C7010895C7010895C7010892
S3150800610095C7010895C7010895C7010895C70108ED
S3150800611095C7010895C7010895C7010895C70108DD
S3150800612095C7010895C7010895C7010895C70108CD
S3150800613095C7010895C7010895C7010895C70108BD
S3150800614095C70108A9CC010895C701082F190208A7
S31508006150D9D30B0895C7010861AE0B0867AE0B08C3
S3150800616095C7010895C7010895C7010895C701088D
S315080061700348044B834202D0034B03B118477047C8
S315080061803C0D00203C0D002000000000064B07498E
S31508006190C91A891048BF0131491003D0044B0BB105
S315080061A001481847704700BF3C0D00203C0D0020F1
S315080061B00000000010B5064C237843B9FFF7D8FF56
S315080061C0044B13B10448AFF300800123237010BDBC
S315080061D0400D002000000000A8360F0808B5054B42
S315080061E01BB105490548AFF30080BDE80840FFF735
S315080061F0CDBF00BF00000000440D0020A8360F08E0
S31508006200A3F5803A704700BF174B002B08BF134B06
S315080062109D46FFF7F5FF00218B460F461348144AA3
S31508006220121ACDF099F80E4B002B00D098470D4B5B
S31508006230002B00D098470020002104000D000D48CF
S31508006240002802D00C48CCF094FFCCF0ADF8200022
S31508006250290000F02BF9CBF043FF00BF000008002F
S31508006260000000000000000000000420400D00208F
S3150800627008B5022073310D0800000000024A0260CA
S31508006280024A0260704700BF403A0D0830AB0D085D
S3150800629008B500F0D1F908BD00B589B0002304930C
S315080062A00593069307938DF81410012809D028B989
S315080062B069B10D4B079304A830F0D6FA09B05DF81A
S315080062C004FB0A4B079304A830F0CEFAF6E700233E
S315080062D000930193029303938DF80410044B0393E0
S315080062E0684630F0C1FAE4E7396703083D670008F5
S315080062F0D566000810B50446044B0360044B0360DA
S315080063000821CBF064F8204610BD00BF403A0D08BE
S3150800631030AB0D08012800D0704708B54FF6FF735B
S31508006320994200D008BD0548054B0360054B03603C
S31508006330054A0649CBF046F8F4E700BF5C0D002095
S3150800634030AB0D08403A0D08000000207D620008B9
S3150800635010B50446174803689B691749984730F0F3
S315080063603DFA0022154931F02FFF204630F002FB96
S3150800637090B9134C0121204630F092FB00212046AB
S3150800638030F07AFB0F4800F09BF904460E4883F07C
S31508006390CEFE48B1204610BD04460C487EF0BAFC35
S315080063A0204631F0ADFAE4E730F018FA012132F070
S315080063B0FDF8EFE718F5012099620008E0390D08A5
S315080063C0680D0020880D0020D81B0220EC390D0826
S315080063D030B585B004681148FFF7BAFFB0B930F098
S315080063E0E9F90F487EF096FC4FF0FF3269462046E1
S315080063F007F096FB0128F7D16946084830F05EFA9F
S3150800640000226946204607F08BFBF3E70546054858
S315080064107EF080FC284631F073FAE0E75C0D002038
S31508006420243A0D080C3A0D0808B5024930F01AF856
S3150800643008BD00BFD163000808B50146014830F021
S315080064401BFB08BD680D002008B54FF6FF7101203B
S31508006450FFF760FF08BD00002DE9F04184B00F4644
S3150800646016461D464468D0F80880A3B20093230C4C
S315080064700C4A02211D2033F09BF8032C02D004B0ED
S31508006480BDE8F0812B780396029301971FFA88F3EB
S3150800649000934FEA1843044A02211D2033F088F876
S315080064A0EDE700BF4C3A0D086C3A0D0808B505F043
S315080064B053FF30F033FC002008BD0000012800D04F
S315080064C070474FF6FF739942FAD1054B1A78054B78
S315080064D033F91230044A1380044A1380F0E700BFE8
S315080064E0840D0020BC3B0D08820D0020800D002085
S315080064F02DE9F0418CB004460023049305930693D6
S315080065000793089309930A93ADF82C30414B1A78F0
S31508006510414B33F91250002D6EDB4FF02008204610
S3150800652015F074FF01270297002601960096334658
S315080065303A463A49204616F0FDF8394A82FB0532B2
S31508006540EB17C3EB6213642202FB1355EDB20095F9
S31508006550DBB24246334904A8CCF0A8FD029701965F
S3150800656000963346022204A9204616F0E3F82E4B7D
S31508006570B3F90010B14244DB2022294880FB0130E0
S31508006580CB17C3EB6013642000FB1311C9B200914B
S31508006590DBB2264904A8CCF089FD01230293002327
S315080065A001930093032204A9204616F0C3F8204B52
S315080065B0B3F90010002928DB2022194880FB013096
S315080065C0CB17C3EB6013642000FB1311C9B200910B
S315080065D0DBB2184904A8CCF069FD01230293002315
S315080065E001930093042204A9204616F0A3F815F097
S315080065F03FFE0CB0BDE8F0816D422DB24FF02D087C
S315080066008DE7494209B22D22B7E7494209B22D2240
S31508006610D3E700BF840D0020BC3B0D08B03A0D0837
S315080066201F85EB51C03A0D08800D0020D43A0D089D
S31508006630820D0020E43A0D0808B51D4B1B8833B1BE
S31508006640013B032B0ED8DFE803F00E1A262D30F097
S31508006650C5F8184931F0F6FE30F0C0F8164B19782F
S3150800666031F025FE08BD30F0B9F8144931F0EAFEDC
S3150800667030F0B4F8104B197831F019FEF2E730F023
S31508006680ADF80C4931F0DEFE30F0A8F80A4B19785F
S3150800669031F00DFEE6E730F0A5F830F09FF831F05E
S315080066A013FEDFE730F09AF8012131F07FFFD9E7D2
S315080066B0860D0020E5690008850D0020F1640008B4
S315080066C008B5034B04221A80FFF7B6FF002008BD61
S315080066D0860D002008B50B4B1B88032B0DD80133FC
S315080066E0084A1380074B1B88074A1380074A52F843
S315080066F0231007487EF00EFB08BD024B00221A80C5
S31508006700F0E700BF18000020860D002004000020D6
S31508006710F43A0D0810B50446064B1B88022B00D028
S3150800672033B92046FFF788FE2146034800F0A4F84F
S3150800673010BD00BF860D0020900D002038B5434BD4
S315080067401B88E3B90388CBB90379012B04D033B985
S315080067503F4B00221A7002E03D4B01221A703C4D55
S315080067602878FFF7D7FF3B4C20467FF024FB297893
S31508006770012027F059FD20467FF02EFB38BD012B5E
S315080067800DD0022BFAD10388002BF7D10379012B00
S3150800679049D0002B4AD12E4B00221A7046E00388B6
S315080067A0002BEBD10379012BE8D12B4A137801335F
S315080067B0DBB21370082B02D9134600221A70264B37
S315080067C01A78264B33F91230254AB2F9002093423B
S315080067D001DD234A1380234AB2F90020934201DAE5
S315080067E0204A13801B4C20467FF0E5FA1A4B1A788C
S315080067F01A4B33F9121002201BF0ACFC194BB3F9F3
S31508006800001002201BF0BBFC154BB3F90010022048
S315080068101BF0CAFC20467FF0DFFA2FF0DFFF0021CD
S3150800682031F045FDAAE70A4B01221A70084D28786F
S31508006830FFF770FF074C20467FF0BDFA2978032042
S315080068401BF079FC20467FF0C7FA97E7860D0020F3
S31508006850850D002040F50120840D0020BC3B0D0865
S31508006860800D0020820D002008B54FF6FF7101202B
S31508006870FFF724FE08BD000000B583B0274B1B8830
S3150800688013BB81B1264B186803681988403901EB98
S31508006890D1715A88234B019340230093453A4910F6
S315080068A015F014FE12E01E4B186803681988403963
S315080068B001EBD1715A881C4B019340230093453A4A
S315080068C0491015F003FE01E0022B04D015F0D0FCA8
S315080068D003B05DF804FB81B1114B18680368198889
S315080068E0403901EBD1715A88104B0193402300932C
S315080068F0453A491015F0EAFDE8E7094B18680368B8
S315080069001988403901EBD1715A88094B0193402304
S315080069100093453A491015F0D9FDD7E7860D0020B2
S315080069208C0D0020E03F0D08E0410D08E03B0D0806
S31508006930E03D0D0810B582B00446254B1B884BB1C7
S31508006940234B1B88012B1ED0214B1B88022B25D0DD
S3150800695002B010BD15F05AFD1E4831F0BBFB31F0F0
S31508006960F5FB23681988403901EBD1715A881A4B0F
S31508006970019340230093453A4910204615F0A6FD99
S3150800698015F076FCDCE72FF029FF144931F05AFDA3
S315080069902FF024FF002131F08AFCD5E7204615F0B8
S315080069A035FD0C4831F096FB31F0D0FB2368198889
S315080069B0403901EBD1715A88094B01934023009362
S315080069C0453A4910204615F081FD15F051FCBFE700
S315080069D0860D00201C000020E0410D08F164000827
S315080069E0E03D0D0808B5064B186020B1FFF7A2FF79
S315080069F015F03EFC08BD03487EF08CF9FAE700BFA7
S31508006A008C0D0020D03B0D080F20704708B50123D8
S31508006A1004220021184602F0E5FC002008BD08B54E
S31508006A20002304221946012002F0DCFC002008BDE0
S31508006A3008B5012304220921022002F0D3FC002014
S31508006A4008BD08B501213A2001F012FB13F00EFB30
S31508006A5015F0D2F808BD08B501213A2001F008FB67
S31508006A6008BD0000BFF34F8F0549CA6802F4E0620B
S31508006A70044B1343CB60BFF34F8F00BFFDE700BF46
S31508006A8000ED00E00400FA050D4B1B68B3F1FF3F6B
S31508006A9006D04FF4801202FA03F30A4A13667047C7
S31508006AA0094B1B785BB9094B4FF400725A6603F51C
S31508006AB0A6235B681BB9034B4FF480121A6670470E
S31508006AC02800002000900044910D002000900050FE
S31508006AD0084B1B68B3F1FF3F0AD1074B1B783BB93C
S31508006AE0064B5B6813F0010F02D0024B00221A60B6
S31508006AF0704700BF28000020910D002000C00550F7
S31508006B004FF000639B6A03F17842B2F5C04F07D293
S31508006B101A680B4B9A4207D00023037083607047AC
S31508006B200023037083607047012303704FF00063EE
S31508006B309A6A926842609B6A9B698360704700BF45
S31508006B4007B0CD5E08B54FF0005340F202221A8016
S31508006B504FF20F025A80FFF785FF4FF000639B6ADA
S31508006B6003F17843B3F5C04F19D230B585B0054661
S31508006B700C4601238DF8043000230293039301A8E1
S31508006B80FFF7BEFF039B13F4806F06D04FF0006338
S31508006B909B6A1B6C21462846984705B030BD70474E
S31508006BA04C4B1B78002B69D110B582B004460023E4
S31508006BB00193009300285FD0464B01221A7002F019
S31508006BC0A8F9454B1860B5F04DF8444B1B78002BD7
S31508006BD058D0434B5A6E62619A6EA26103F5805291
S31508006BE04FF4804393663F4B5968E1613E4999608B
S31508006BF0196E2160596E6160D3F87011A160196C25
S31508006C00E160596C21613949086C1864496C59640A
S31508006C10012151661B6E13F4005F44D0344BDB68C8
S31508006C2013F0010FFAD1FFF72FFF324B04221A6631
S31508006C304FF400721A6600F073FAB0F1FF3F38D1CC
S31508006C402C4C082323664FF4805323664FF00063C9
S31508006C5023664FF400236366694601A8FFF77DFFA4
S31508006C60019B2366009B63661C4B1B7823B1224A53
S31508006C70116821665268626602B010BD154B022281
S31508006C801A70704700F0E2FD0028A2D108231A4ABC
S31508006C901A491B480068BAF09DFC002899D10F4B89
S31508006CA001221A7095E7174BDB6813F0010FFAD12A
S31508006CB0B9E700F035FA40F201139842C0D00D4BFF
S31508006CC04FF400521A664FF480421A660422C3F83B
S31508006CD07021B5E7920D0020B40D0020C00D0020EC
S31508006CE0008000500080004455CEAC0000C000541F
S31508006CF00000044000900044B80D00200071080010
S31508006D004C00002000000450214B1B78012B03D0B7
S31508006D101F4B01221A70704710B5044638B300F0AD
S31508006D20FFF9B0F1FF3F23D122681A4B1A66626851
S31508006D305A66A268C3F87021E2681A6422695A641E
S31508006D40E36913F0010F02D0124B00229A60FFF795
S31508006D50BFFE6269104B5A66A2699A66B4F08AFF4A
S31508006D600E4B186802F0DBF8094B00221A7010BDAA
S31508006D7000F0D6F940F201139842D5D0084B01220B
S31508006D805A66084BDB6813F0010FFAD1CCE700BF4F
S31508006D90920D00200080004400800050B40D0020B1
S31508006DA0009000400000044038B54FF000639B6A2D
S31508006DB003F17842B2F5C04F2AD21A68184B9A42A4
S31508006DC02AD1184B1B781BB1022B01D0002421E0D5
S31508006DD0154D2846FFF7E4FE14490120C1F8800145
S31508006DE0134B03F500544FF48032E260086003F554
S31508006DF080531A614FF000639B6ADB699847044623
S31508006E002846FFF781FF2CB9064B01221A7001E0CC
S31508006E104FF48174204638BD4FF48174FAE700BFF9
S31508006E2007B0CD5E910D0020940D002000E100E032
S31508006E30008000442B4B1B7803B9FEE700B583B0EE
S31508006E4000230093019308236A46274927480068C8
S31508006E50BAF0C0FB38BB264BD3F840311F2B19D9E3
S31508006E60234BD3F84031203B01229A40019B134320
S31508006E70019308236A461C491C480068BAF060FB5F
S31508006E804FF0005340F20B221A804FF20F025A803D
S31508006E90FFF7E8FD164BD3F8403101229A40009BD4
S31508006EA013430093E5E7134A9042E9D1104BD3F810
S31508006EB040311F2B0ED90E4BD3F84021203A01231F
S31508006EC09340019308236A46074908480068BAF0C0
S31508006ED037FBD5E7064BD3F84021012393400093AF
S31508006EE0F0E700BF920D0020007108004C0000205A
S31508006EF0008000440BE000F038B54FF000639B6A51
S31508006F0003F17842B2F5C04F14D204461B6B03F165
S31508006F107843B3F5C04F0DD2074D2846FFF740FE1C
S31508006F204FF000639B6A1B6B5B68204698472846B0
S31508006F30FFF7EAFE38BD00BFC40D002008B54FF0C4
S31508006F4000639B6A03F17842B2F5C04F08D21B6B07
S31508006F5003F17842B2F5C04F05D29B68984701E025
S31508006F604FF4817008BD4FF48170FBE730B583B0EC
S31508006F7001904FF000639B6A03F17842B2F5C04F67
S31508006F8016D21B6B03F17843B3F5C04F15D20C4DDF
S31508006F902846FFF705FE4FF000639B6A1B6B9B694B
S31508006FA0012101A8984704462846FFF7ADFE01E0EF
S31508006FB04FF48174204603B030BD4FF48174F9E76D
S31508006FC0C40D00202DE9F0414FF000639B6A03F1E0
S31508006FD07844B4F5C04F17D207460E4615461B6BC4
S31508006FE0BBB1DFF834804046FFF7DAFD4FF00063A7
S31508006FF09B6A1B6B5B6A2A463146384698470446A5
S315080070004046FFF781FE01E04FF401742046BDE8D3
S31508007010F0814FF40174F9E7C40D002070B54FF004
S3150800702000639B6A03F17842B2F5C04F18D2054651
S315080070300C461B6B03F17843B3F5C04F14D20C4EC4
S315080070403046FFF7ADFD4FF000639B6A1B6B9B6AEA
S3150800705021462846984704463046FFF755FE01E084
S315080070604FF40174204670BD4FF40174FAE700BF6F
S31508007070C40D002030B5ADF52B7D4FF000639B6A3B
S3150800708003F17843B3F5C04F15D20C464FF42A7274
S315080070906946FFF797FF054678B921466846FFF720
S315080070A0BDFF40F201239842F7D040F203239842ED
S315080070B003D0054601E04FF4017528460DF52B7DF2
S315080070C030BD0000F8B50D464FF000639B6A03F12A
S315080070D07841B1F5C04F19D2044616461B6B03F129
S315080070E07843B3F5C04F15D20C4F3846FFF758FD15
S315080070F04FF000639B6A1B6B9B6B32462946204602
S31508007100984704463846FFF7FFFD01E040F20114B0
S315080071102046F8BD40F20114FAE700BFC40D00206E
S315080071204FF000639B6A03F17842B2F5C04F29D24B
S315080071301B6B03F17843B3F5C04F26D200B585B073
S3150800714001238DF8043000230293039301A8FFF767
S31508007150D7FC039B13F4803F1AD0029BC3F3074264
S315080071601B0E18D0012B08D04FF000639B6A1B6BCF
S315080071701B6C984705B05DF804FB0A2AF4D840F260
S315080071800110F7E740F20110704740F2011070470E
S3150800719040F20110EEE740F20110EBE770B54FF050
S315080071A000639B6A03F17842B2F5C04F18D20546D0
S315080071B00C461B6B03F17843B3F5C04F14D20C4E43
S315080071C03046FFF7EDFC4FF000639B6A1B6BDB6BE9
S315080071D021462846984704463046FFF795FD01E0C4
S315080071E040F20114204670BD40F20114FAE700BFD0
S315080071F0C40D00202DE9F04190B017461D464FF00A
S3150800720000639B6A03F17842B2F5C04F4DD2064639
S315080072100C461B6B03F17843B3F5C04F4AD201A85D
S31508007220FFF76AFE059BD3F80C801FFA88F3002B3C
S3150800723043D00EA93046FFF781FEC0BB0E9E6319E8
S315080072400F9A93423CD81FFA88F8B4FBF8F208FB69
S315080072501242E2B1C8F1000C0CEA04004044B3FB48
S31508007260F8F108FB113171B103EA0C034344191A0A
S31508007270304411B1FFF792FFC8B92A46394630198A
S31508007280FFF720FF13E0A2EB08025119F0E73019C7
S31508007290B5FBF8F308FB13532BB1C8F100032B40D9
S315080072A008EB0301E5E72946E3E74FF4817010B0E0
S315080072B0BDE8F0814FF48170F9E740F20140F6E746
S315080072C040F20240F3E700230360704703680B604F
S315080072D001607047F0B585B00C4694469DF83410A9
S315080072E0664A1278002A00F0BD800546BCF1070FF1
S315080072F000F2BA800A9A002A00F0B8800B9A002A8F
S3150800730000F0B6800E9AB2F5006F00F3B38001283C
S315080073105BD05B4A02EB0C12127B002A00F0AC80B1
S3150800732000220092019202920392564A02EB4C1EE8
S31508007330002C4FD14FEA4C1600209051CEF804008D
S31508007340CEF80800CEF80C009EF8020040F01000B7
S315080073508EF802009EF8030040F030008EF8030015
S3150800736021B9C1B241F003018EF8031000930E9BB8
S31508007370013B444A4FEA4C1002EB4C11165A63F390
S315080073800E1616520A9B8B600B9B4B60CB789DF8AA
S315080073903C2062F38303CB70012D36D0109B002B63
S315080073A056D0374A4FEA0C1102EB0C13109850507E
S315080073B0119A5A6000249C605D737246694660465D
S315080073C002F0DAF8204605B0F0BD0C9A002AA0D1E2
S315080073D02D48F8E72B4F4FEA4C1607EB4C120020C6
S315080073E0B85150609060D060907840F0100090706E
S315080073F0D07840F00300D0700029B7D107EB4C12C3
S31508007400C1B241F03001D170B0E70E460A7B42F0B6
S3150800741001020A73D2B242F002020A73CA68042150
S3150800742061F39F02F26006F1100796E80F0087E8FD
S315080074300F00F2696FF0030161F39F02F2610C9B82
S315080074407361012CAAD10B9AB2610C9A7260A5E7F6
S31508007450002DA6D10B4B03EB4C139A786FF304124D
S315080074609A709EE70948AEE70748ACE70648AAE7D8
S315080074700548A8E70448A6E70548A4E7640F0020DE
S31508007480E40E0020E40D0020018000F0028000F0E8
S31508007490078000F0134B1B78FBB110B50446F0B11A
S315080074A001F037FD0023072B13D80F4A02EB03120E
S315080074B0127B0AB10133F6E723600B4A190102EB86
S315080074C0031301241C730024545001F028FD2046A0
S315080074D002E001F024FD054810BD0548704705483F
S315080074E0FAE700BF640F0020E40E0020048000F0D5
S315080074F0028000F0018000F000B583B0134B1B68D2
S31508007500019300238DF8043001F003FD104B1B781E
S3150800751033B90F4B01221A7001F001FD002309E06F
S3150800752001F0FDFC0B480EE00B4A02EB03120021AA
S3150800753011730133072BF7DD08238DF8073001A8EF
S3150800754001F0E8FF002003B05DF804FBE0430D08F6
S31508007550640F0020038000F0E40E002000B589B017
S3150800756084460E9807900D9806909DF83000059071
S315080075700B9804909DF82800039000200290019330
S3150800758000920B4662460146FFF7A4FE09B05DF875
S3150800759004FB00B589B084460E9807900D980690AE
S315080075A09DF8300005900B9804909DF828000390EC
S315080075B000200290019300920B4662460121FFF7D4
S315080075C089FE09B05DF804FB0C4B1B7873B110B546
S315080075D00C4607280CD869B1094B03EB00131B7B33
S315080075E053B102F013F82060002010BD054870471B
S315080075F00548FAE70448F8E70448F6E7640F002068
S31508007600E40E0020028000F0018000F0078000F000
S31508007610F8B5194B1F6D5B6D1F4002D40125002478
S3150800762002E0FEE701346D00072C24D83D42F9D06C
S31508007630124B1D652301124AD358002BF2D002EBD8
S315080076400416B1680131B16072682046984780F027
S315080076500100C0B2737B012BE4D10028E2D0094BAC
S3150800766003EB44131A7B6FF341021A731A7F6FF305
S3150800767041021A77D6E7F8BD0000045000200450EE
S31508007680E40E0020E40D002010B5044602E0202098
S3150800769007E09047DCB194FAA4F00028F7D0B0FAD6
S315080076A080F00123834024EA0304094B03EB00130B
S315080076B05A68002AEED0064B03EB00131B7B002BFF
S315080076C0E7D0034B03EB001399689047E2E710BD38
S315080076D0680F002008B5192001F02EFC28B1084BC8
S315080076E04FF00072C3F880211A601A2001F024FCBA
S315080076F028B1034B4FF08062C3F880211A6008BD99
S3150800770000E100E038B505460C4601F002FC044BE2
S3150800771003EB05135C6000221A7301F000FC38BD08
S31508007720680F0020F8B504460D4617461E4601F0B8
S31508007730F0FB0CB9052D1DD0012C05D0022C09D063
S31508007740032C0FD0FF241FE0012D21D0032DF5D1E6
S31508007750042410E0052D1DD0072D1DD0002DEFD1D6
S31508007760062408E0022D19D0052D01D0FF240BE0D0
S315080077700A2400E0002404F11003094901EB03116F
S315080077804F608E6001230B7301F0C9FB2046F8BDDC
S315080077900324F0E70724EEE70824ECE70924EAE7E0
S315080077A0680F0020F8B505460F46164601F0B1FBEE
S315080077B005F0FC0C0F4BD3F824140023032B0BD82D
S315080077C05C1904F00304644421FA04F212F0010F70
S315080077D003D00133DBB2F1E7FF24FF2C06D0064BBA
S315080077E003EB04135F609E6001221A7301F097FB96
S315080077F02046F8BD00C00350680F002008B5084BA6
S31508007800D3F82404D3F82024104000F0553020F093
S31508007810502003F50053C3F82004FFF735FF08BDD1
S3150800782000C0035008B5084BD3F82404D3F8202425
S31508007830104000F0AA3020F0A02003F50053C3F84A
S315080078402004FFF721FF08BD00C0035008B5034B0D
S315080078501968034B1868B9F099FD08BD2C0000207B
S315080078604C000020B0F1FF3F01D010B97047024824
S3150800787070470248704700BF21E000F024E000F09E
S315080078808908002301E0043001338B4205D20268DF
S31508007890B2F1FF3FF7D000207047012070477047CC
S315080078A0F8B505460E4694002246CCF081F8FFF757
S315080078B0D9FF074628B9224631462846CBF022FD8D
S315080078C008B93846F8BD014FFBE700BF10E000F0E5
S315080078D008B50346084613F0030F02D111F0030F4B
S315080078E00AD092001946CBF07CFA002008BD53F85E
S315080078F0041B40F8041B013A002AF8D1F5E70000FA
S3150800790038B50446CCF058F8FFF7ACFF054608B181
S31508007910284638BD01F0D2FF01462046FFF7B0FFE2
S315080079200028F5D1004DF3E70EE000F030B583B03E
S31508007930044601A801F0AAFF9DF80630238001231A
S31508007940E3700025A57001F0B9FF6060284603B012
S3150800795030BD08B501F088FE08BD08B501F074FE13
S31508007960002008BD70470000024B4FF480321A67AA
S31508007970704700BF00900050324B984252D029D829
S31508007980314B984248D009D9304B984247D0304BB2
S3150800799098421DD12F4BD3F8800070472E4B984242
S315080079A037D005D92D4B984210D12A4B186F7047FE
S315080079B02B4B984202D02B4B984202D1254B986DFF
S315080079C07047294B9842F9D000207047002070472D
S315080079D000207047254B98422CD00CD9244B98424E
S315080079E02CD003F5740303F5105398420FD1194BA5
S315080079F0D3F8980070471F4B984217D01E4B9842F1
S31508007A0003D1144BD3F88C00704700207047002030
S31508007A107047104B586E70470E4B586F70470D4B9A
S31508007A20986F70470B4BD3F884007047094BD3F80F
S31508007A3088007047074BD3F890007047054BD3F87A
S31508007A40940070470048E8010024F400C0EA2101C8
S31508007A5080BA8C010080E00FC0CF6A00405DC60086
S31508007A6080841E0000093D0040420F00007E560338
S31508007A700090D00380D54302006CDC0238B5054679
S31508007A800C460F4BD3F8803003F00303022B0ED0BD
S31508007A90032B10D0012B06D00023184605B1286009
S31508007AA004B1236038BD14F007FF0E23F6E714F07F
S31508007AB051FF0723F2E714F0F3FE0623EEE700BFB3
S31508007AC00080005038B505460C46174BD3F8200100
S31508007AD000F00700062823D8DFE800F0040A0E168F
S31508007AE0121A1E00012305B1286004B1236038BDAF
S31508007AF014F0D6FE0523F6E714F00EFF0323F2E78B
S31508007B0014F028FF0723EEE714F020FF0223EAE724
S31508007B1014F0C6FE0623E6E714F0FEFE0423E2E7A9
S31508007B2000231846DFE700BF0080005038B5054639
S31508007B300C46164BD3F8283103F00703013B052BF7
S31508007B4020D8DFE803F003131B0F0B1714F0A8FE69
S31508007B50052305B1286004B1236038BD14F0A0FEE2
S31508007B600623F6E714F0F6FE0723F2E714F0D4FE30
S31508007B700323EEE714F0D0FE0423EAE714F0E6FE4A
S31508007B800223E6E700231846E3E700BF008000501B
S31508007B9070B582B006460D4600230193104BD3F804
S31508007BA0804104F00304022C16D0032C0FD0012CBC
S31508007BB007D000240EB1019B336005B12C6002B0DA
S31508007BC070BD002101A8FFF77DFF1024F2E714F02D
S31508007BD0C1FE01900724EDE714F0B8FE0190E9E72D
S31508007BE00080005030B583B005460C46002301934B
S31508007BF0154BD3F8203203F00703042B21D8DFE80E
S31508007C0003F0030B11161B0001230DB1019A2A601C
S31508007C1004B1236003B030BD002101A8FFF786FF39
S31508007C201223F2E714F096FE01900723EDE714F00D
S31508007C30D5FE01900A23E8E714F0D6FE0190092341
S31508007C40E3E70023E1E700BF0080005038B50546AA
S31508007C500C46104BD3F8400100F00300032815D852
S31508007C60DFE800F002080C10012305B1286004B112
S31508007C70236038BD14F0B2FE0A23F6E714F0B4FE0A
S31508007C800923F2E714F0ADFE0C23EEE700231846AD
S31508007C90EBE700BF0080005030B583B005460C46C0
S31508007CA0002301934FF0E0231B6913F0040F0CD057
S31508007CB014F01CFE01900D2300930DB1019B2B605F
S31508007CC00CB1009B236003B030BD694601A8FFF7DD
S31508007CD0BDFFF2E730B583B005460C460023019395
S31508007CE0144BD3F8603203F00703013B032B1FD86C
S31508007CF0DFE803F0020E1914002101A8FFF7E2FEDF
S31508007D0010230DB1019A2A6004B1236003B030BD77
S31508007D10002101A8FFF79AFF1123F2E714F01AFED3
S31508007D2001900723EDE714F011FE01900223E8E71E
S31508007D300023E6E70080005030B583B005460C46C0
S31508007D4000230193144BD3F8943203F00703013B45
S31508007D50032B1FD8DFE803F0020E1914002101A82F
S31508007D60FFF7B0FE10230DB1019A2A6004B1236013
S31508007D7003B030BD002101A8FFF768FF1123F2E721
S31508007D8014F0E8FD01900723EDE714F0DFFD0190FC
S31508007D900223E8E70023E6E70080005030B583B009
S31508007DA005460C46002301930C4BD3F8703203F0BA
S31508007DB00303012B09D0022B0DD115230DB1019A0E
S31508007DC02A6004B1236003B030BD002101A8FFF783
S31508007DD03DFF1123F2E70023F0E700BF00800050C3
S31508007DE038B505460C46134BD3F8000200F00700D9
S31508007DF004281BD8DFE800F003090D11150001233C
S31508007E0005B1286004B1236038BD14F0E7FD0A23E4
S31508007E10F6E714F0E9FD0923F2E714F0E2FD0C2376
S31508007E20EEE714F063FD800A0F23E9E700231846FE
S31508007E30E6E700BF0080005038B505460C46134BF0
S31508007E40D3F8080200F0070004281BD8DFE800F082
S31508007E5003090D111500012305B1286004B123603B
S31508007E6038BD14F0BBFD0A23F6E714F0BDFD09235F
S31508007E70F2E714F0B6FD0C23EEE714F037FD800A9E
S31508007E800F23E9E700231846E6E700BF0080005005
S31508007E9038B505460C46104BD3F8400200F00300EF
S31508007EA0032815D8DFE800F002080C10012305B1F5
S31508007EB0286004B1236038BD14F090FD0A23F6E764
S31508007EC014F092FD0923F2E714F08BFD0C23EEE77C
S31508007ED000231846EBE700BF0080005038B505467A
S31508007EE00C46104BD3F8600100F00300032815D8A0
S31508007EF0DFE800F002080C10012305B1286004B180
S31508007F00236038BD14F06AFD0A23F6E714F06CFD09
S31508007F100923F2E714F065FD0C23EEE70023184663
S31508007F20EBE700BF0080005038B505460C46104BFD
S31508007F30D3F8000100F00300032815D8DFE800F0A5
S31508007F4002080C10012305B1286004B1236038BD6E
S31508007F5014F0E2FC0323F6E714F046FD0923F2E7E2
S31508007F6014F0F2FC0823EEE700231846EBE700BFFF
S31508007F700080005070B505460E46144600F0C2FF54
S31508007F802B685C4034405C402C6000F0BFFF70BD3D
S31508007F90B0F5207F20D00ED8B0F5007F16D020D8B7
S31508007FA010B1B0F5C07F04D10F4B186FC0F3033082
S31508007FB018E0002016E0B0F5607F05D10A4BD3F82B
S31508007FC08000C0F301100DE000200BE0064BD3F84B
S31508007FD09000C0F3046005E0034B186FC0F38020DF
S31508007FE000E00020013070470080005038B5054693
S31508007FF00C46174B4FF480329A660020FFF7C8FFED
S3150800800005FB00F0134BDA6902F4803241F6713150
S31508008010D9635B6823F440136CB90F49884207D8C3
S3150800802000210B430B494B600AB10022CA6338BDD5
S315080080304FF48011F5E7002C07DD0849884201D87E
S315080080400021EEE74FF48011EBE74FF44011E8E723
S315080080500090005000000350005A6202002D3101C2
S3150800806008B514F055FC0021FFF7C0FF08BD000055
S31508008070430905D0012B0DD0022B0DD0002200E0BC
S31508008080002200F01F0049B102F580520123834007
S3150800809013607047034AF4E7034AF2E702F5005211
S315080080A0F4E700BF648000506880005010B582B0C5
S315080080B0002301930093B0F5807F00F20781B0F5A5
S315080080C0807F00F27A81DFE810F04A0178017801B2
S315080080D078017801780178017801780178017801CA
S315080080E078017801780178017801780178017801BA
S315080080F078017801780178017801780178017801AA
S31508008100780178017801780178014A017B014A01F2
S315080081107B01510151015101510151017B0121019D
S315080081203B01A201A7013B017B017B017B01780191
S3150800813078017801780178017801780178017B0166
S315080081407B017B01B10168017B0178017801780127
S315080081507801780178017801780178017801780149
S315080081607801780151014A014A014A015D013B0142
S315080081703B01AC01700193019801780178017801FF
S315080081807801780112014A017801780178017801AD
S315080081907801780178017801780178017801780109
S315080081A078017801780178017801780178017801F9
S315080081B078017801780178017801780178017801E9
S315080081C078017801780178017801750178017801DC
S315080081D078017801780178017801780178017801C9
S315080081E078017801780178017801780178017801B9
S315080081F078017801780178017801780178017801A9
S315080082007801780178017801780178017801780198
S315080082107801780178017801780178017801780188
S315080082207801780178017801780178017801780178
S315080082307801780178017801780178017801780168
S315080082407801780178017801780178017801780158
S315080082507801780178017801780178017801780148
S315080082607801780178017801780178017801780138
S315080082707801780178017801780178017801780128
S315080082807801780178017801780178017801780118
S315080082907801780178017801780178017801780108
S315080082A078017801780178017801780178017801F8
S315080082B078017801780178017801780178017801E8
S315080082C0780178017801780178019D01B0F5C06FD1
S315080082D000F09D8010D9B0F5206F00F0A2804AD931
S315080082E0B0F5406F00F08980B0F5486F5AD100218B
S315080082F001A8FFF721FD60E0B0F5607F6BD00AD9D1
S31508008300B0F5A06F74D0B0F5B06F2CD1002101A8DC
S31508008310FFF73EFC51E0B0F5007F0AD114F0CCFA25
S3150800832004464FF40070FFF733FEB4FBF0F40194F3
S3150800833043E011D9B0F5207F42D0B0F5407F3CD15B
S3150800834014F0D4FA04464FF42070FFF721FEB4FB6C
S31508008350F0F46408019430E0B0F5C07F2DD114F034
S31508008360C5FA019029E0B0F5806F26D1002101A851
S31508008370FFF7A8FB21E0B0F5F06F57D007D9B0F5A5
S31508008380106F1AD1002101A8FFF756FD15E0B0F5C8
S31508008390D06F41D0B0F5E06F0FD1002101A8FFF7EB
S315080083A077FD0AE0B0F5286F07D1002101A8FFF78D
S315080083B0F5FC02E014F080FA0190019802B010BDB5
S315080083C014F094FA04464FF42070FFF7E1FDB4FB6D
S315080083D0F0F40194F1E700216846FFF74FFB009C93
S315080083E04FF46070FFF7D4FDB4FBF0F40194E4E7B2
S315080083F0002101A8FFF7F6FBDFE7002101A8FFF738
S3150800840095FBDAE7002101A8FFF746FCD5E700212E
S3150800841001A8FFF71BFCD0E7002101A8FFF7E0FC45
S31508008420CBE7002101A8FFF755FCC6E7002101A804
S31508008430FFF754FDC1E7000008B58020FFF736FEB8
S31508008440034B984203D8034B4FF480321A6708BD92
S31508008450005A620200A0005000B583B000230193C1
S31508008460B0F5807F00F04A8118D9B0F5F06F00F0BA
S315080084704A8140F2DB80B0F5206F00F0538140F26C
S315080084800481B0F5406F00F04881B0F5486F40F0C0
S315080084900C8101A90020FFF74FFCDFE0802800F2DD
S315080084A0DD802428C0F0DA8024385C2800F2D680E3
S315080084B001A353F820F000BFF3860008F3860008EE
S315080084C0F3860008F3860008F38600085D86000830
S315080084D0E98600085D86000881860008118700087D
S315080084E05D8600085D8600085D8600085D860008D2
S315080084F05D8600085D8600085D8600085D860008C2
S315080085005D8600085D8600085D8600085D860008B1
S315080085105D8600085D8600085D86000807870008F6
S31508008520418600085D8600085D8600085D860008AD
S315080085305D8600085D8600085D8600085D86000881
S315080085405D8600085D8600085D8600085D86000871
S315080085505D8600085D8600085D860008F3860008CB
S315080085605D8600085D8600085D860008A18600080D
S315080085705D8600085D86000825870008B186000824
S31508008580718600081B8700085D8600085D8600085E
S315080085905D8600085D8600085D86000893840008ED
S315080085A05D8600085D8600085D8600085D86000811
S315080085B05D8600085D8600085D8600085D86000801
S315080085C05D8600085D8600085D8600085D860008F1
S315080085D05D8600085D8600085D8600085D860008E1
S315080085E05D8600085D8600085D8600085D860008D1
S315080085F05D8600085D8600085D8600085D860008C1
S315080086005D8600085D8600085D8600085D860008B0
S315080086105D8600085D8600085D8600085D860008A0
S315080086205D8600085D860008BB860008B0F5B06F59
S315080086305AD00AD9B0F5D06F6AD0B0F5E06F1CD120
S3150800864001A90020FFF724FC08E0B0F5607F04D1FB
S3150800865001A90020FFF712FA00E003D2019803B03F
S315080086605DF804FBB0F5806F43D0B0F5A06FF5D187
S3150800867001A90020FFF7B6FAF0E7B0F5C06FEDD113
S3150800868001A90020FFF7E2FAE8E7B0F5086F04D180
S3150800869001A90020FFF748FCE0E7B0F5106FDDD12F
S315080086A001A90020FFF7C8FBD8E7B0F5286FD5D198
S315080086B001A90020FFF772FBD0E71D4B1B6F03F0E3
S315080086C00703013B032BC9D8DFE803F00B020508B3
S315080086D005230193C2E703230193BFE70823019308
S315080086E0BCE702230193B9E701A90020FFF750FA76
S315080086F0B4E701A90020FFF7E5F9AFE701A90020D3
S31508008700FFF7CAFAAAE701A90020FFF7E7FBA5E7E2
S3150800871001A90020FFF764FBA0E701A90020FFF7E5
S3150800872005FA9BE701A90020FFF7D4FA96E700BFF0
S315080087300080005008B5FFF78FFE092810D012D325
S315080087400A38012812D80C4B4FF480025A6603F5F2
S31508008750D8335B6A13F0010F0BD04FF4FA7001E0BF
S31508008760064B188808BD4FF6FF70FBE74FF6FF70FB
S31508008770F8E74FF6FF70F5E7009000505400002028
S3150800878010B504468020FFF767FE032800F0AE8088
S315080087905D4B4FF480125A665C4B45F60E02C3F8E1
S315080087A0802003F580524FF0A061916203F50053D3
S315080087B04FF480329A62554B9B6D13F4803FFAD181
S315080087C0524B9B6D13F0804FFAD1226863681B05E4
S315080087D043EA0263227B43EA0243627B43EA0233AB
S315080087E0A27B43EA8213E27B1343484A13619369E7
S315080087F003F00043216943EA8163616943EA01633F
S31508008800217E43EA0143617E43EA0123A17E0B43AD
S315080088109361136A23F00F03E269002A46D11146D1
S315080088200B43E17E43EA81031A43384B1A62E36934
S31508008830002B3DD1354A916A354B0B4094F82010F0
S3150800884043EA411394F8211043EA011394F82410DB
S3150800885043EAC10343F4803393622C4B9A6D2D4B44
S315080088609343FAD1294A02F580514FF080738B62FF
S31508008870136923F47003A06843EA005313614FF0A9
S3150800888000438B6194F822301BB9234B4FF080725A
S315080088909A6294F8233013BB1F4B4FF480329A62C6
S315080088A01A4B9B6D13F0804FFAD118E00821B7E7F1
S315080088B0022B1CD0154A916A154B0B4094F82010D0
S315080088C043EA411394F8221043EA016394F824100A
S315080088D043EAC10394F8231043EA0143936294F8E8
S315080088E025301BB1094B0D4AC3F8802010BD074B34
S315080088F000221A619A614FF408524FF47F410848E2
S31508008900FFF738FBD6E700BF009000500040005A3A
S31508008910C7FFFEFE030001000060005AF1A7FFFF33
S315080089203440005A014B93F900007047500000206C
S3150800893070B51D4B9E6AFF2834D804469B6D13F408
S31508008940803F03D0194B4FF480329A62174B4FF091
S3150800895080729A62FFF7E6FF001903D4FF2802DD4A
S31508008960FF2000E00020104DAB6923F47F0323F4B9
S315080089707F4343EA00432402A4B22343AB61324651
S315080089804FF080710A48FFF7F5FAA86D10F48030A9
S3150800899000D170BD32464FF480310548FFF7EAFA38
S315080089A00020F6E72120F4E70040005A0050005A5C
S315080089B02840005A08B5164B9A6A03F580534FF4B7
S315080089C080319962124B9B6D03F00303032BF9D197
S315080089D0104B4FF0807199620D4B996D0E4B8B437E
S315080089E0FAD10C4B01211965094B9B6D13F0020F47
S315080089F0FAD1074B9B6D13F0020FFAD0044B9B6D0F
S31508008A0013F0020FFAD005490548FFF7B3FA08BD77
S31508008A100040005A0050005A0300010000000101FE
S31508008A202840005A10B443784F2B28BF4F231A46C4
S31508008A301C4B4FF40001596603F5B8334FF4D15176
S31508008A40596203F5805102244C6003F50053012155
S31508008A505960154B1B6913F4803FFAD1037842EA33
S31508008A600323114A5361416883681B0143EA0123C2
S31508008A70017B43EA4103417B0B439360817BC37BC4
S31508008A801B0143EA4113017C43EA4103417C0B4342
S31508008A905360837C1BB113466FF4D1525A625DF85A
S31508008AA0044B70470090005000000250014B18809C
S31508008AB0704700BF54000020014B1880704700BF64
S31508008AC05200002008B51B4B4FF480025A6603F586
S31508008AD0D83302225A60184B9B6813F4803FFAD1A8
S31508008AE0012806D0144B00225A62134B00225A6002
S31508008AF008BD13F011FF114B984212D003F512234B
S31508008B0003F5F863984210D000EB8001490A400A41
S31508008B100B4AB2FBF0F2084BD9621A6301225A6279
S31508008B20E3E745F67A120749F5E745F61A020649D4
S31508008B30F1E700BF009000500040025000F04902E3
S31508008B4064666666D8B80500BBCF050008B5002977
S31508008B5003DD0121FFF74AFA08BD0021FFF746FAAF
S31508008B60FAE70000B0F5207F5DD02DD8B0F5007F7C
S31508008B704ED061D810B1B0F5C07F24D110B54C1EC7
S31508008B80FFF76EFA00F060F8FEF7EEFE2B4A136F59
S31508008B9023F4704343EA0433136713F0A7FE284B04
S31508008BA0D3F8843013F0100FF9D1254BD3F884107D
S31508008BB0C1F38111C1F10201FFF7C8FF00F058F8AF
S31508008BC0FFF73AFC10BD7047B0F5607F1FD11D4B0B
S31508008BD0D3F8FC2012F0807206D01846D3F8FC3081
S31508008BE023F08073C0F8FC3001391448D0F880307F
S31508008BF023F0300343EA0113C0F88030E2B1114A8A
S31508008C00D2F8FC3043F08073C2F8FC3070477047E6
S31508008C1001390A4AD2F8903023F0F85343EA01633F
S31508008C20C2F8903070470139044A136F23F4806301
S31508008C3043EA812313677047704700BF00800050DE
S31508008C400040005000ED00E008B502214FF4207006
S31508008C50FFF788FF08BD08B50121022000F0D4F906
S31508008C60FFF7FEF9FFF7F0FFFEF77EFE08BD0000EE
S31508008C7008B54FF4C070FFF719FA054B984205D9A5
S31508008C8002214FF42070FFF76DFF08BD0121F8E7B8
S31508008C9080F0FA0208B513F029FE0C4BD3F884309D
S31508008CA013F0100FF9D1094BD3F88410C1F38111D1
S31508008CB0C1F10201FFF74AFF0121002000F0EAF99D
S31508008CC0FFF7D6FFFFF7B8FB08BD00BF004000500E
S31508008CD02DE9F0410646844B4FF4C0225A6603F547
S31508008CE098335C6804F0010403F5005301225A60C6
S31508008CF07E4B5B6813F0020FFAD130687C4BD3F8D1
S31508008D008430C3F3001513F0100FF7D1784BD3F85E
S31508008D108430C3F38113012B01D02B4606E0754B33
S31508008D20984200F2D8802B4600E00133182B0AD867
S31508008D301A0171498A589042F7D301EB0312526817
S31508008D409042F2D800E00023192B00F0C6806A4A48
S31508008D5002EB0313D3F80880D86848BB8020FFF7D6
S31508008D607BFB05282BD00027644BDB6813F0060F26
S31508008D70FAD1624B9A68C3F808809B6883EA0803AD
S31508008D8013F4F8137DD1B188F28842EA01425749B3
S31508008D90CA60B268032A31D0092A66D0082A37D1B0
S31508008DA05749D1F8002142F00302C1F800212FE00B
S31508008DB0FEF7E2FD00F07F0048EA0008CEE7FFF77D
S31508008DC04FF9FFF741FFFEF7CFFD4FF4C070FFF7ED
S31508008DD0DFF80546012803D0022808D00027C3E794
S31508008DE002214FF4C070FFF7BDFE0127BCE704213E
S31508008DF04FF4C070FFF7B6FE0127B5E7A1F5A0311D
S31508008E00D1F8002122F0030242F00102C1F8002144
S31508008E10327D002A33D00422717D01B140231343E9
S31508008E20327B43EA420332691343304A936030681F
S31508008E3013F03CFD00262D4B03F500520721116166
S31508008E4003F5805301225A60284B1C6914F0070465
S31508008E50FAD08020FFF700FB052819D0002E3ED156
S31508008E60012C3ED03046BDE8F0812549D1F80021D5
S31508008E7022F0030242F00202C1F80021C8E71A46AE
S31508008E80CAE71E4B9A600CB10126D4E70126E0E733
S31508008E90DFB913F02BFD054613F002FD13F000FDB4
S31508008EA0134BD3F8843013F0100FF9D1104BD3F8C5
S31508008EB08410C1F38111C1F102012846FFF746FE6D
S31508008EC0FFF7D6FEFFF7B8FAC8E729464FF4C07091
S31508008ED0FFF748FEDDE70026C4E70026C2E70026BE
S31508008EE0C0E70126BEE700BF0090005000C0015051
S31508008EF000400050005A620208440D080000015064
S31508008F0000800050EFF3108072B6704700B962B661
S31508008F107047EFF31180302383F31188704780F38D
S31508008F2011887047034B5868C0F30800003818BF0B
S31508008F300120704700ED00E04209064B53F8223045
S31508008F4000F01F0023FA00F080F0010000F0010095
S31508008F50704700BF00E100E0044A536F23F44073F2
S31508008F60417843EA01235367704700BF0040005029
S31508008F707047704710B504460B4A136943F004035B
S31508008F80136102F0E3FCFFF7F3FF084B084AC3F846
S31508008F90202430BFFFF7EDFF02F014FD04B110BD29
S31508008FA013F0A4FCFBE700BF00ED00E000E003506F
S31508008FB00000FF0F10B50446094A136943F004037D
S31508008FC01361084B084AC3F8202402F0BFFC30BFDF
S31508008FD002F0F8FC04B110BD13F088FCFBE700BFF3
S31508008FE000ED00E000E003500000FF0F70477047F7
S31508008FF0034AD36E23F0300301790B43D3667047D7
S315080090000040005070470000F8B50446204BD3F8DE
S31508009010843013F0100FF9D11D4BD3F88430C3F305
S3150800902081139C422DD013F047FC0646012C11D023
S31508009030FFF768FF0546164F07F500534FF0007215
S315080090405A662046FFF7DEFF621E4FF480639340A0
S315080090503B6706E00121FFF779FDE9E70C4BD3F8FA
S3150800906084300B4B5B6E13F0007F05D1084BD3F8A9
S31508009070843013F0200FF1D02846FFF747FF022C63
S3150800908000D0F8BD00213046FFF760FDF9E700BFC4
S315080090900040005010B50C46034650B1094A1278F4
S315080090A012B1094A934208D921460220FFF7ACFFBC
S315080090B010BD13F001FC0346F0E721460120FFF737
S315080090C0A3FFF5E788150020005A620208B5027862
S315080090D0034B1A7001210020FFF7DCFF08BD00BF13
S315080090E08815002038B52F4B4FF000425A6603F515
S315080090F00B235C6C04F001044AF6CD321A64E8B915
S31508009100294B5B6B13F00103FAD1274A556815F012
S31508009110010539D002F50052012151601A4622494B
S31508009120096B11F0010F04D120498A4201D8013296
S31508009130F5E71E498A422FD81D4625E000231A4A1C
S31508009140126B12F0080F04D0184A934201D8013363
S31508009150F5E7164A934221D8134B03F5005220210E
S31508009160916203F5805301225A60002300E001331F
S315080091700D4A926A12F0200F02D10C4A9342F6D990
S315080091800A4A93420CD8002514B1074B084A1A64B8
S31508009190ACF084FE284638BD0725F5E70725F3E732
S315080091A00725F1E700900050004009503F420F00A4
S315080091B03254FFFF10B51A4B4FF000425A6603F5BA
S315080091C00B235C6C04F001044AF6CD321A6443782A
S315080091D05B0043F00103134AD363134B5B6B13F035
S315080091E00B0FFAD1104A536823F4F873817843EACF
S315080091F001135360C178437943EA012393600179E7
S31508009200837943EA012313610078FFF76BFF14B1F2
S31508009210054B064A1A64ACF041FE012010BD00BF9A
S315080092200090005000400050004009503254FFFFA3
S3150800923010B50F2800D90F20124B5C6E03F580532A
S315080092404FF000425A6603F50B235A6C02F00102EE
S315080092504AF6CD3119640C4B5B6B13F0800FFAD1CB
S3150800926009490B6A23F00F0303430B620AB1074A45
S315080092700A64002C03DB064B4FF000425A66ACF03A
S315080092800DFE10BD00800050004009503254FFFF0B
S3150800929000A0005010B5134B5C6E03F580534FF0D9
S315080092A000425A6603F50B235A6C02F001024AF68D
S315080092B0CD3119640C4B5B6B13F0800FFAD10A4958
S315080092C00B6A23F4F85343EA00230B620AB1074AF0
S315080092D00A64002C03DB064B4FF000425A66ACF0DA
S315080092E0DDFD10BD00800050004009503254FFFFDC
S315080092F000A0005070B505460E461446FFF702FE5C
S315080093002B685C4034405C402C60FFF7FFFD70BD65
S315080093102DE9F8430D4614461E469DF820809DF813
S315080093202470072A29D8930000FA03F203219940EA
S315080093302148FFF7DFFF4FF00009072C29D8A100C5
S3150800934005F003028A40032303FA01F11B48FFF7DD
S31508009350D1FF5EB31A4A0123A3401360B8F1000F88
S3150800936026D0184A13600122A2401749C1F82024C2
S3150800937007B3164A1360BDE8F883A2F108094FEA55
S31508009380890300FA03F2032199401148FFF7B2FF57
S31508009390D3E74FEA890905F0030202FA09F2032125
S315080093A001FA09F10B48FFF7A5FFD2E70A4AD2E707
S315080093B00A4AD7E70A4ADDE700C4035008C403503F
S315080093C010D4035014D4035000E0035024D403509F
S315080093D004C403500CC4035010E4035014E40350AF
S315080093E024E40350F8B504460D461E4617463AB11E
S315080093F0FBB101228A4000EB400109011D4B5A507E
S31508009400072D1ED8A90004EB44031B0107FA01F235
S315080094100F2000FA01F118481844FFF76BFF3FB90F
S31508009420FEB10122AA4004EB44042401114B1A514F
S31508009430F8BD01228A4000EB400109010F4B5A5042
S31508009440DEE7A5F108039B0004EB440C4FEA0C1C6D
S3150800945007FA03F20F21994009486044FFF74AFFCB
S31508009460DDE70122AA4004EB44042401034B1A5108
S31508009470DEE700BF40D0035034C0035040E003503D
S315080094803CC00350114BD3F8302422EA0002C3F83B
S315080094903024D3F8302401400A43C3F83024D3F8E3
S315080094A02C240243C3F82C24A3F56033DB6E03F0A7
S315080094B03003202B06D0064AD36E23F0300343F040
S315080094C01003D366034BC3F82004704700C003504B
S315080094D00040005000E0035070B514461D469DF844
S315080094E0106083F001030322FFF77CFF04F11001EB
S315080094F001248C4005FA01F12046FFF7C3FF16B197
S31508009500024B1C6070BD024BFBE700BF24D403501E
S3150800951024E4035010B5044601212020FEF7A8FDD7
S3150800952001212120FEF7A4FD114B01225A60227861
S3150800953012069A606178A27842EA01429A61FF228D
S315080095409A6200229A631A644FF000425A6503F53C
S3150800955000534FF0FF321A65064A4FF40011C2F85D
S315080095608011E3781B01DBB282F81533116010BD58
S315080095700000045000E100E070B50C46C3B20125B6
S315080095809D40214E06F500531D650968830003F1C9
S31508009590A04303F588235960637B00EB400106EB83
S315080095A001110B6694F80AC0E37A1B0543EA0C43DB
S315080095B094F80CC043EA4C53CB6522F003020A67C1
S315080095C0FFF7A7FC736D2B437365237A13B1336CCE
S315080095D02B433364637A1BB10B4A936B2B43936318
S315080095E02379A27942EA0342074B03F500518A61BF
S315080095F06679E27942EA064203F58054A2614D6330
S315080096009D64FFF78CFC70BD00000450F8B5044655
S31508009610C3B201259D40FFF77CFC0A4B1F6D5E6BAC
S3150800962004EB440403EB04135C6EFFF778FC2F404D
S31508009630C4F30A10354203D100B907B90130F8BDA1
S315080096400020FCE700000450064B4FF480329A666F
S3150800965003F51C3341F67132DA6303F50053012230
S31508009660DA60704700900050074B41F67132DA63B2
S3150800967003F500520121D1600022DA63A3F51833FD
S315080096804FF480329A6670470000035041B906309D
S31508009690084B53F8200020F0F8004004400C7047AF
S315080096A01630044B53F8200020F0F8004004400C14
S315080096B0704700BF00800350013831281AD8DFE808
S315080096C000F029191919191919191919191919192E
S315080096D019191925192719191919191919191919D2
S315080096E019191B1D1F2119191919191919191919C8
S315080096F01919192300207047012070470220704766
S3150800970004207047052070470620704707207047D9
S31508009710082070470320704703460846012B1AD0D5
S31508009720CBB1322B17D8122B15D3123B022B12D8DA
S31508009730DFE803F002110800022909D003290AD13B
S3150800974001207047022905D0032904D1012070475A
S31508009750002070470020704770B5064610B91025DE
S31508009760002402E00425FBE70134A54206DD314664
S315080097702046FFF78BFF0028F6D101E04FF0FF34B3
S31508009780204670BD70B50446C2F3062602F00702ED
S3150800979041B942EA062242F440220634094B43F80C
S315080097A0242070BD11463046FFF7B6FF0546304601
S315080097B0FFF782FF45EA00251634024B43F824508A
S315080097C0EFE700BF0080035008B589B292B20A439A
S315080097D00021FFF7D7FF08BD22F0030303F1A043DA
S315080097E003F5603322B109B91860704700021860A2
S315080097F070474FF050234FF400321A677047000045
S31508009800014BD3F89400704700400050436813B9E1
S31508009810416070475B685A68012AFBD159607047F6
S31508009820836813B9816070475B685A68012AFBD15F
S3150800983059607047C369032B05D89A1C00EB82024E
S3150800984051600133C3617047C269042A1DD84FF0BD
S3150800985098431B6C13F4801FF9D0043292004FF022
S3150800986098431A6502681A6042681A6082681A6024
S315080098700023C2699A4208D99A1C00EB82025168F1
S315080098804FF0984211600133F3E77047074B4FF4E6
S3150800989080325A6603F5E6239B69C3F38512827004
S315080098A003F03F0242701B0B037070470090005094
S315080098B0014B986CD96C70470080E00F034B9B688E
S315080098C00A3303F01F030120984070470080E00F19
S315080098D0014B586880B270470080E00F08B5FFF763
S315080098E0F7FF0A4BA3FB0023C3F38F1341339BB245
S315080098F0422B07D0432B07D0412B01D0002008BDAF
S315080099000420FCE70520FAE70320F8E7D34D6210A8
S31508009910074B9B6813F0020FFAD1054B5B6813F0EF
S31508009920020FF5D1024BDB69002BF1D1704700BF5E
S3150800993000800A50064B5B6813F0010F03D0044BF6
S31508009940DB69002BF6D1024B02221A61704700BF71
S3150800995000800A5008B5FFF7DBFF034B03F580517B
S3150800996001224A601A6108BD00800A5008B5054BF5
S315080099705B68012B00D008BDFFF7DCFF024B012214
S315080099805A60F8E700800A5000A00A5010B504464D
S31508009990FFF7BEFF084B5B68012B05D0237843B160
S315080099A00122054BDA6010BDFFF7E0FFFFF7B0FFB5
S315080099B0F4E70022F5E700BF00800A50D8B90B7813
S315080099C0D3B101234A6812B1127843EAC2034A782E
S315080099D0A2B1022213438A6812B1127843EA8213AB
S315080099E08A786AB104221343CA6812B1127843EA24
S315080099F04223044A936470470023E3E70022E9E719
S31508009A000022F0E700800A5008B9014B59647047F4
S31508009A1000900A5008B9014B5964704700A00A50D3
S31508009A2008B9014B1964704700A00A5010B9024BD7
S31508009A30186C70470020704700800A5048B911B169
S31508009A40012903D07047044BD86C7047024B186D38
S31508009A5070470020704700BF00800A5040B911B116
S31508009A60012903D07047034BDA647047014B1A6526
S31508009A70704700BF00800A5010B9024B586D7047F6
S31508009A800020704700800A5038B50446ACF081FAC9
S31508009A90054DA446BCE80F000FC59CE8030085E801
S31508009AA00300002038BD00BF8C15002047F6FF7361
S31508009AB09A427FD002297FD870B5414B13F801E04E
S31508009AC0BEF1010F01D9002070BD3E4B03EBCE015C
S31508009AD091F802C0604613F83E30012B26D0394B68
S31508009AE003EBCE035C68002C68D0B4F900309342CF
S31508009AF004DBB4F90230934200DC1346A288FF2A3D
S31508009B002CD000212826C8221D46D21A92FBF6F22E
S31508009B100A4412B22B4B03EBCE0393F801E09645A9
S31508009B2001DD002A2FDA0EF1FF322CE0CB78A3EB09
S31508009B300C0300249C420ED2191BA3EB51012148A9
S31508009B4000EBCE00406830F91100904201DC0C466B
S31508009B50F0E74B1EEEE76344D8B2B5E7B4F9062042
S31508009B60B4F908600121CFE75C331749A1FB031359
S31508009B709B09013212B2164696450FDD04EBC20167
S31508009B80898899420AD304EBC2018B68B1F9061099
S31508009B9001FB0533002BE7DA0023E5E7013E04EB7A
S31508009BA0C604A2889A4200D31A46624500D31046D4
S31508009BB0C0B289E7FF20704700207047002083E77E
S31508009BC098450D088C150020D34D621002296FD8D0
S31508009BD03A4B5B5C012B6DD8394911F833100129D2
S31508009BE02AD010B4364901EBC3014C68002C63D067
S31508009BF0201D334901EBC3018978914234D230499B
S31508009C0001EBC301C978914233D92D4901EBC3034E
S31508009C1093F801C00CF1FF3C5FFA8CFCA388FF2B7C
S31508009C202AD00023634529D2591C30F831109142B5
S31508009C3024D30133DBB2F5E7214901EBC301C97827
S31508009C40914200D20A461E4800EBC3008078121AD9
S31508009C50D2B2091A8A4200DD0022194901EBC30370
S31508009C605B6833F912007047B4F902005DF8044BDB
S31508009C707047B4F90000F9E70123D3E74FF47A7186
S31508009C8001FB02F200EBC3004368D31AB0F90220C5
S31508009C9002EBD27103EB610393FBF2F3B4F9000014
S31508009CA09842E3DBB4F902009842DFDC18B2DDE73C
S31508009CB004487047034870470248D7E798450D0897
S31508009CC08C1500200080FFFF08B50248FFF7DCFE70
S31508009CD008BD00BF8C640D08004870475800002076
S31508009CE008B5ADF045F908BD00B587B00023019366
S31508009CF0029303930493059302238DF804300B4BC8
S31508009D00029303238DF80D3004228DF80E208DF86A
S31508009D10133005238DF814300DEB02014FF0FF3098
S31508009D20ACF03EFB07B05DF804FB00BF006A180004
S31508009D3010F1860F08D018B110F1930F01D004481E
S31508009D4070476FF06F0070476FF07100704700BF83
S31508009D50009FFFFF70B58CB004460D4616462422B8
S31508009D60002103A8C9F0F8FA4FF41051ADF80C1009
S31508009D7094B3216891B39DB3897903291BD004292B
S31508009D801DD0022902D06FF0710012E08023ADF8D1
S31508009D900E30206CC0B14FF4AE710AF055FD124B6F
S31508009DA00093F3082A4603A9206C17F08DF9FFF7EC
S31508009DB0BFFF0CB070BDC023ADF80E30E9E74FF415
S31508009DC08073ADF80E30E4E74FF4AE7101200AF067
S31508009DD003FD38B12064E2E70448EAE70348E8E708
S31508009DE00248E6E70248E4E70002C003009FFFFFD7
S31508009DF0809EFFFF58B108B50346006848B151B1C7
S31508009E00186C50B117F078FAFFF792FF08BD0448AE
S31508009E1070470348FAE70248F8E70148F6E700BF43
S31508009E20009FFFFF88B102688AB1006C88B191B1C2
S31508009E3000B583B00023019301AB102217F08CFA0A
S31508009E40FFF776FF03B05DF804FB04487047034844
S31508009E507047024870470148704700BF009FFFFFE0
S31508009E6078B110B5044602F0CDFC022801D00020D6
S31508009E7010BD206E02F046FF0028F9D06FF01D00D5
S31508009E80F6E76FF01B00704788B110B5044602F07C
S31508009E90B9FC022801D0002010BD4FF0FF31206E1A
S31508009EA002F0F2FE0028F7D06FF01D00F4E76FF01D
S31508009EB01B00704720B108B5006E02F059FF08BDB7
S31508009EC0704778B110B50446002303604360836089
S31508009ED0C36000F1100383605023C36002F07CFE68
S31508009EE0206610BD704708B502F08CFC012801D821
S31508009EF0002008BD02F0C2FCFBE710B5044602F0DC
S31508009F0081FC012800D810BD204602F0DBFCFAE7E8
S31508009F1010B512F035FE0D4B0D4A0E490E480FF0DE
S31508009F205FFC0E4B1B7803B110BDFFF7DCFF044640
S31508009F300A4B1B7833B90A4B1B680A489847074BE4
S31508009F4001221A702046FFF7D8FFEDE7619E000848
S31508009F50899E0008B59E0008C39E0008A415002027
S31508009F60980000208C210020062813D8DFE800F08E
S31508009F7004140E06090B1000DC2070474FF4B2706B
S31508009F807047D82070474FF4E070704758207047E4
S31508009F90242070470020704798207047A0F540336A
S31508009FA0A0F50030B3F5803F04D3B0F5803F03D267
S31508009FB00120704701207047002070470120704734
S31508009FC000F01F0201239340A0F50620A0F550607B
S31508009FD04009074951F820201A4341F8202005492D
S31508009FE051F8202022EA030241F82020704700BFDA
S31508009FF0BC150020A815002000F01F0CA0F50620AF
S3150800A000A0F5506040090F4951F82030012202FAA4
S3150800A0100CF2134341F8203000231A4604E00A499B
S3150800A02051F823100A440133042BF8D902B17047BA
S3150800A030042A05D8034B002143F822100132F7E71A
S3150800A040704700BFA8150020BC15002000F01F0CA3
S3150800A050A0F50620A0F550604009054951F82030C2
S3150800A060012202FA0CF2534041F82030704700BF33
S3150800A070BC1500204140012201E018440132032AA0
S3150800A08008D8D30021FA03F34B4013F0030FF4D09A
S3150800A0909B00F2E770470021704708B502F0B2FB53
S3150800A0A0012801D8002008BD02F0E8FBFBE710B53F
S3150800A0B0044602F0A7FB012800D810BD204602F08E
S3150800A0C001FCFAE72DE9F041A2B04024224600211E
S3150800A0D012A8C9F041F92246002102A8C9F03CF9A4
S3150800A0E0214F23E0DFF88C8029E022AB03EB8403C1
S3150800A0F053F8400CFFF764FF0134AC42F5D3CDF8B2
S3150800A10000803B46102202A918480068B7F0DBFB1E
S3150800A1100546002407E022AB03EB840353F8800CC2
S3150800A120FFF76AFF0134AC42F5D33746104B9F421E
S3150800A13013D807F110060F4B9E42D3D8B04608F144
S3150800A140FF38CDF800803B46102212A90748006860
S3150800A150B7F0B0FB05460024CFE7074B01221A707B
S3150800A16022B0BDE8F08100BF006D08004C00002059
S3150800A170FF70080000710800D01500202DE9F04195
S3150800A18084B006460D461C4617460AB100231360DE
S3150800A1900CB1002323601023009300232A4631467E
S3150800A1A011480068B7F064FA8046C8B90FB11023A1
S3150800A1B03B602A680D4B9A4210D18FB184B1234671
S3150800A1C003AA314608480068B7F030FB20B923686F
S3150800A1D03A689B1A236003E0804601E0DFF81080A6
S3150800A1E0404604B0BDE8F0814C000020105D175EC3
S3150800A1F0FFDF00F02DE9F0478046894617461E46E0
S3150800A200FFF738FF524CA4FB0034E40804EBC414EF
S3150800A210041B04F5062404F550644E4B1B7813B151
S3150800A2200025AA464EE0FDF711FB00287DD1FFF771
S3150800A23049FFF5E7BAF1000F00D1A246A4F50624B6
S3150800A240A4F6FF44424BA3FB0423DB0803EBC3132A
S3150800A250E31A03F5062404F5506432E00A9B1C60F1
S3150800A26000204FE0099B089A31462046FFF786FFF3
S3150800A270394B984209D01233984206D060B1374B11
S3150800A280984209D06FF091003CE02146344B18689B
S3150800A290B7F022FB00284ED1B268F3684B4508BFD9
S3150800A2A0424531D0A4F50624A4F6FF44284BA3FB67
S3150800A2B00423DB0803EBC313E31A03F5062404F5AA
S3150800A2C050640135802D27D8A4F5062CACF5506CC2
S3150800A2D04FEA5C1C234B53F82C3004F01F02D34082
S3150800A2E013F0010FBED1204B53F82C30D34013F096
S3150800A2F0010F9FD1E7B1BAF1000FAFD00A9BC3F89F
S3150800A30000A00020BDE8F08717B17368012B15D0AF
S3150800A3100A9B1C600020F5E79FB1BAF1000F13D025
S3150800A3200A9BC3F800A00020ECE76FF09100E9E76C
S3150800A3306FF08B00E6E76FF08B00E3E76FF08400C1
S3150800A340E0E76FF08B00DDE76FF08B00DAE700BF20
S3150800A350813FE00FD0150020FFDF00F0FEDF00F0A0
S3150800A3604C000020BC150020A815002010B50C4B89
S3150800A3701B7823B10B4B1B680B48984710BDFFF79A
S3150800A3808CFE0446064B1B7833B9084B1B680648F7
S3150800A3909847034B01221A702046FFF788FEE9E723
S3150800A3A0D115002090000020D41500209800002028
S3150800A3B008B5044B1B781BB1034B1B680348984729
S3150800A3C008BD00BFD11500208C000020D415002040
S3150800A3D02DE9F04F87B006460D469846DDF840A0B1
S3150800A3E091462AB1002B56D040F26C739A4255D842
S3150800A3F0BAF1010F55D80023059309F1100739461C
S3150800A40001200AF0E9F9044600284DD03A46002111
S3150800A410C8F0A2FFFFF7AAFF05AB0293002301933A
S3150800A42000932346012230462946FFF7E3FE83467A
S3150800A43000BB1F4B2360A660E560C4F804A0B9F111
S3150800A440000F1DD13B46224605991A480068B7F009
S3150800A45077F8E0B16FF0910B3A4600212046C8F034
S3150800A4607BFF20460AF0C0F9FFF7A2FF584607B05F
S3150800A470BDE8F08F10F18C0FEED16FF08D0BEBE786
S3150800A4804A46414604F11000C8F0ABFCDAE70598E5
S3150800A490FFF796FDE0E76FF0860BE7E76FF0910BA5
S3150800A4A0E4E76FF0850BE1E76FF08C0BDEE700BFA2
S3150800A4B0105D175E4C0000202DE9F0478CB007466A
S3150800A4C00E461546DDF85080DDF854A0994673B15E
S3150800A4D0BAF1000F51D0B8F1000F51D0B8F1005FB2
S3150800A4E051D3C3F1005303F5802398454ED8002471
S3150800A4F0089409940A940B9407940694FFF736FF78
S3150800A50005AB029307AB019306AB009308AB224653
S3150800A51038463146FFF76EFE0446F8B9079BB9F18F
S3150800A520000F06D0AB4206D80BBB25B16FF08604E8
S3150800A53014E0AB421ED35B1B4B4515D2CAF800305C
S3150800A540DAF800300093069B2B44424605991148D9
S3150800A5500068B7F08DF808B16FF09104FFF728FF8F
S3150800A56020460CB0BDE8F087CAF80090E8E76FF01F
S3150800A5708604F3E76FF08604F0E76FF08604EFE7EA
S3150800A5806FF08604ECE76FF08604E9E76FF086045F
S3150800A590E6E700BF4C000020F0B58DB02AB30646AA
S3150800A5A00D4617460024089409940A940B940794B8
S3150800A5B00694FFF7DBFE05AB029307AB019306ABE8
S3150800A5C0009308AB224630462946FFF713FE044699
S3150800A5D040B9099B7B60079B3B60FFF7E9FE204675
S3150800A5E00DB0F0BDFFF7E4FEF9E76FF08604F6E775
S3150800A5F070B58CB006460D460024089409940A9452
S3150800A6000B9407940694FFF7B1FE05AB029307ABCC
S3150800A610019306AB009308AB224630462946FFF75E
S3150800A620E9FD044670B9099B012B10D005990B4B1F
S3150800A6301868B7F051F968B90598FFF707FD059846
S3150800A640FFF7DAFCFFF7B4FE20460CB070BD6FF0DA
S3150800A6508404F7E76FF09104F4E700BF4C0000208C
S3150800A6602DE9F04387B007460C46FFF714FD06466A
S3150800A6700D462046FFF70FFD00230593A74233D06A
S3150800A6808046894603AA30462946FFF785FF0446D1
S3150800A69058BB039901200AF09FF8074648B305AB53
S3150800A6A001930090039B002230462946FFF704FFDA
S3150800A6B0044640B1059A00213846C8F04DFE384692
S3150800A6C00AF092F811E0049B00933B46059A40462F
S3150800A6D04946FFF77DFE04460028EBD13046294659
S3150800A6E0FFF786FF0446E5E70024204607B0BDE8E5
S3150800A6F0F0836FF08C04F8E708B512F041FA00B958
S3150800A70008BD6FF09200FBE708B512F039FA00B9F8
S3150800A71008BD6FF09200FBE770B58AB006460C4696
S3150800A720154612F02DFA88B901A812F01FFB80B958
S3150800A7302246314601A813F0A7F810B92C600AB0D2
S3150800A74070BD00232B606FF09200F8E76FF092005F
S3150800A750F5E76FF09200F2E708B5084611461A4683
S3150800A76000231360FFF7D8FF08BD0000038803F431
S3150800A7704F42B2F5824F12D0002321F0FF01154A4D
S3150800A780914217D002F58052914216D0A2F588520E
S3150800A790914215D0122B04D06FF085007047DBB2BA
S3150800A7A0EBE74388B3F5807F0DD1B1F1062F0DD1C4
S3150800A7B0002070476FF0860070476FF0860070477C
S3150800A7C06FF0860070476FF0850070476FF0850060
S3150800A7D0704700BF0003000620F0FF03134A9342A8
S3150800A7E016D002F58052934212D0A2F588529342AF
S3150800A7F00ED020F4FF7222F00102B2F1062F07D024
S3150800A8000B498B4204D00B4B9A4201D0002070476B
S3150800A81010F0FF0008D040F00070074B984201D0B6
S3150800A8200020704703207047002070470003000689
S3150800A8300009000600040006090000022DE9F04F91
S3150800A84097B0209D229E239C002873D08846914667
S3150800A8509A468346002970D0002A71D0002D56D01A
S3150800A860002E70D0002C71D0249B002B71D0BBF821
S3150800A870003023F0FF03B3F5E24F6DD15146584639
S3150800A880FFF774FF074600283DD15046FFF7A4FF9F
S3150800A8908246002863D0242200210DA8C8F05CFD5A
S3150800A8A02022002105A8C8F057FD05AB4A464146B7
S3150800A8B0584615F0A9FA074628BBBBF802300733F5
S3150800A8C0DB084FEA4308B4EB430F4BD30DA812F04D
S3150800A8D04DFA002849D1CDF80C800296219B0193A8
S3150800A8E000950023524605A90DA813F033FFA0B919
S3150800A8F0BBF802300733DB085B00249A13600DA807
S3150800A90012F047FAA0BB384617B0BDE8F08F219B76
S3150800A910002BA5D06FF08607F5E7012807D0482851
S3150800A92002D06FF09207EAE76FF08507E7E76FF066
S3150800A9308B07E4E76FF08607E5E76FF08607E2E73F
S3150800A9406FF08607DFE76FF08607DCE76FF08607AC
S3150800A950D9E76FF08607D6E76FF08607D3E76FF07B
S3150800A9608507D0E76FF08907CDE76FF09207CAE74A
S3150800A9706FF09207C7E72DE9F04F97B0209C219E0C
S3150800A980229F239D002863D0884691469A4683468F
S3150800A990002960D0002A61D0002C62D0002E63D036
S3150800A9A0002F64D0002D65D0249B002B65D02AF09B
S3150800A9B0FF03B3F1062F63D1242200210DA8C8F0A6
S3150800A9C0CBFC2022002105A8C8F0C6FC05AB4A46E8
S3150800A9D04146584615F018FA804668BBBBF8003061
S3150800A9E023F0FF03B3F5E24F4DD151465846FFF722
S3150800A9F0BDFE804600BBBBF802300733DB084FEAD2
S3150800AA004309B5EB430F41D30DA812F0AFF900285F
S3150800AA103FD1CDF80C9002970196009401230022AD
S3150800AA2005A90DA813F096FE50B9249BC3F800900B
S3150800AA300DA812F0AEF978BB404617B0BDE8F08F06
S3150800AA40012802D06FF09208F2E76FF08B08EFE763
S3150800AA506FF08608F0E76FF08608EDE76FF0860876
S3150800AA60EAE76FF08608E7E76FF08608E4E76FF035
S3150800AA708608E1E76FF08608DEE76FF08608DBE711
S3150800AA806FF08508D8E76FF08608D5E76FF0890874
S3150800AA90D2E76FF09208CFE76FF09208CCE72DE97E
S3150800AAA0F04FC1B04A9E4C9F4D9D002800F0C180D2
S3150800AAB00C46904699468246002900F0BD80002A39
S3150800AAC000F0BD80002E62D0002F00F0BB80BAF8DF
S3150800AAD0003023F0FF03B3F5E24F03D0B3F5824FFE
S3150800AAE040F0B38049465046FFF740FE83460028AB
S3150800AAF040F098804846FFF76FFE8146002800F030
S3150800AB00A780002D00F0A7802422002137A8C8F0CE
S3150800AB1023FC202200212FA8C8F01EFC2FAB42469A
S3150800AB202146504615F070F9834600287AD1BAF8BE
S3150800AB3002300733DB08B5EB430F40F08F80002166
S3150800AB400D9184220EA8C8F007FCBAF8003023F04D
S3150800AB50FF03B3F5E24F20D037A812F007F9002813
S3150800AB607FD1039502974B9B0193009600234A4693
S3150800AB702FA937A813F088FE00284FD02C284BD0D1
S3150800AB80012853D0482844D06FF0920B46E04B9BDF
S3150800AB90002B99D06FF0860B44E005AC0DF1BC0C88
S3150800ABA0BCE80F000FC49CE80F0084E80F00079B61
S3150800ABB023F48042079223F0407323F480430793DB
S3150800ABC043F400530793002308930DAB0993882396
S3150800ABD00A9337A812F0CAF810B16FF0920B21E069
S3150800ABE005AA2FA937A813F08BFC38B1482802D03C
S3150800ABF06FF0920B16E06FF0850B13E02FAC0DF19A
S3150800AC00140CBCE80F000FC49CE80F0084E80F0082
S3150800AC10A2E76FF0850B01E06FF0940B37A812F0EE
S3150800AC20B8F808BB584641B0BDE8F08F6FF08B0BFB
S3150800AC30F4E76FF0860BF5E76FF0860BF2E76FF037
S3150800AC40860BEFE76FF0860BECE76FF0850BE9E70D
S3150800AC506FF0850BE6E76FF0940BE3E76FF0940B64
S3150800AC60E0E76FF0920BDDE76FF0920BDAE72DE97C
S3150800AC70F047C0B0489D499E4B9F002800F0B08021
S3150800AC800C46904699468246002900F0AC80002A78
S3150800AC9000F0AC80002D00F0AC80002E00F0AC80F7
S3150800ACA04A9B002B00F0AB80002F00F0AB8029F008
S3150800ACB0FF03B3F1062F40F0A8802422002137A80D
S3150800ACC0C8F04AFB202200212FA8C8F045FB2FAB6D
S3150800ACD042462146504615F097F80446002836D1D4
S3150800ACE0BAF802300733DB08B7EB430F40F0908021
S3150800ACF049465046FFF73AFD044640BB00210D91F0
S3150800AD0084220EA8C8F028FBBAF8003023F0FF0307
S3150800AD10B3F5E24F1FD037A812F028F800287AD1E9
S3150800AD2003974A9B029301960095012300222FA9B7
S3150800AD3037A813F0A9FD28B12C284ED0012849D0F0
S3150800AD406FF0920437A812F024F8002866D120463E
S3150800AD5040B0BDE8F0870DF1140C0DF1BC0EBEE84D
S3150800AD600F00ACE80F009EE80F008CE80F00079B69
S3150800AD7023F48042079223F0407323F48043079319
S3150800AD8043F400530793002308930DAB09938823D4
S3150800AD900A9337A811F0EAFFC8B905AA2FA937A858
S3150800ADA013F0AEFB804637A811F0F3FF78B9B8F177
S3150800ADB0000F0CD10DF1BC0C0DF1140EBEE80F00FE
S3150800ADC0ACE80F009EE80F008CE80F00A3E76FF0D1
S3150800ADD09204BCE76FF08B04B4E76FF09404B1E714
S3150800ADE06FF08604B3E76FF08604B0E76FF0860469
S3150800ADF0ADE76FF08604AAE76FF08604A7E76FF061
S3150800AE008604A4E76FF09404A1E76FF085049EE733
S3150800AE106FF094049BE76FF0920498E76FF0920442
S3150800AE2095E710B586B00C9C04940B9C03940A9C79
S3150800AE300294099C0194089C0094FFF7FFFC06B055
S3150800AE4010BD10B586B00C9C04940B9C03940A9C08
S3150800AE500294099C0194089C0094FFF78CFD06B0A7
S3150800AE6010BD10B584B0099C0394089C0294079CF5
S3150800AE700194069C0094FFF712FE04B010BD10B5AD
S3150800AE8084B0099C0394089C0294079C0194069C30
S3150800AE900094FFF7ECFE04B010BD10B586B00C9C0C
S3150800AEA004940B9C03940A9C0294099C0194089CA4
S3150800AEB00094FFF7C3FC06B010BD10B586B00C9C15
S3150800AEC004940B9C03940A9C0294099C0194089C84
S3150800AED00094FFF750FD06B010BD10B584B0099C6C
S3150800AEE00394089C0294079C0194069C0094FFF71F
S3150800AEF0D6FD04B010BD10B584B0099C0394089C17
S3150800AF000294079C0194069C0094FFF7B0FE04B0D7
S3150800AF1010BD08B50120FDF7D5FD002008BD0000CD
S3150800AF206FF0040307E003F00F010A4A0A445021B0
S3150800AF30117601335BB24B2B09DC002BF3DB03F1F3
S3150800AF40604202F56142502182F80013F1E70020C1
S3150800AF50704700BFFCEC00E008B516F039FB08BDE9
S3150800AF6010B500F017FF044608B1204610BD16F0CC
S3150800AF7007FC01F06DF84FF4167303FB00F101F5B9
S3150800AF80742101F23F210A4BA3FB0131890C094BBD
S3150800AF901960002308E0084A42F8231007480268A7
S3150800AFA00A4402600133DBB2092BF4D9DDE700BF9E
S3150800AFB083DE1B4374160020481600204016002026
S3150800AFC008B5044B01221A7001F006F8024B186006
S3150800AFD008BD00BF381600203C16002010B501F049
S3150800AFE037F8044611F0FDFC844200D810BD01F084
S3150800AFF0ABF90028FAD0034A1060034B01221A70F5
S3150800B000F4E700BF3C16002038160020234B1B78B7
S3150800B01003B9704770B500F0DFFF214B1B68C01AF3
S3150800B020204B186000B901201E4C206001F010F872
S3150800B0304FF4167303FB00F000F5742000F23F206E
S3150800B040194BA3FB00302168B1EB904F21D8174864
S3150800B0500378174D55F82320541A164E3268121BDA
S3150800B060326045F8231009321349A1FB0242D2087F
S3150800B070124C22600133DBB20370A1FB0312D20823
S3150800B08002EB8202A3EB42030370044B00221A7000
S3150800B09070BD024B00221A70FAE700BF381600206E
S3150800B0A03C1600207016002083DE1B434416002041
S3150800B0B04816002040160020CDCCCCCC74160020B3
S3150800B0C0014B1868704700BF7416002010B5044677
S3150800B0D0FDF718FF024B1C60FDF718FF002010BD96
S3150800B0E07816002010B51C4600202DF047FB20607E
S3150800B0F008B1002010BD1B20FCE708B500202DF084
S3150800B10081FB002008BD000010B582B00124009420
S3150800B11000231A46194618462DF08EFB0094002384
S3150800B1201A46194618462DF0BFFB0348FFF7CEFF0F
S3150800B130002002B010BD00BF60000020BFF34F8F93
S3150800B1400549CA6802F4E062044B1343CB60BFF3B7
S3150800B1504F8F00BFFDE700BF00ED00E00400FA05D1
S3150800B16008B5FFF7EBFF08B5FFF7FAFF08BD0000C3
S3150800B170012000E00130022804D8431E024AD35CAD
S3150800B180002BF7D0C0B27047B4160020F8B50646B3
S3150800B1900F46032903D8DFE801F00A04060800254C
S3150800B1A006E0042504E0102502E0402500E001251C
S3150800B1B0032E05D8DFE806F002070A0D45F002055A
S3150800B1C00B4B1C6809E045F00805F9E745F0200532
S3150800B1D0F6E745F08005F3E7246844B163681A6822
S3150800B1E02A42F9D05B68394630469847F4E7F8BDF5
S3150800B1F0BC160020EFF3108072B6704700B962B62D
S3150800B20070470000134B1B7813B310B5124B1B780D
S3150800B2105BB9002000F042FC68B9104B01221A7095
S3150800B2200F4B1A780F4B1A7010BD00F009FC0A4B29
S3150800B23000221A70EDE700F03DFC064B00221A705A
S3150800B240074C01212078FFF7A1FF01232370EBE7C4
S3150800B250704700BFAC1600207F160020AD160020F0
S3150800B260C0160020AE16002008B50B4B1B78024608
S3150800B27060B101210B4408490B7032B1074B1B78AA
S3150800B280012B02D9064B1B7813B108BDFF21F1E744
S3150800B290FFF7B8FFF9E700BFB4160020C016002074
S3150800B2A0AD16002010B5FDF72DFE0446054B1B789C
S3150800B2B02BB9FFF7A7FF2046FDF728FE10BDFDF7BF
S3150800B2C025FEFBE77E16002010B5FDF71BFE04469B
S3150800B2D0164B1B78D3B1164B1B782BB9144B01228E
S3150800B2E01A70144B00221A70134B1B7893B9204618
S3150800B2F0FDF70CFE012000F0D1FBFDF703FE044626
S3150800B3000B4B1B7863B9094B00221A702046FDF7D0
S3150800B310FDFD10BD00F094FB074B00221A70E6E70E
S3150800B32000F0C8FB024B00221A70ECE7AC160020AE
S3150800B3307E160020AD1600207F16002010B584B0BA
S3150800B340A0B1831EDBB2012B13D803A9002000F09D
S3150800B35011FE70B91C4B1B68039A9A4212D8012039
S3150800B360FFF782FF194B01221A7002E0174B1B7870
S3150800B3700BB904B010BD0020FFF776FF134B00226F
S3150800B3801A70F6E7124B1C6800F0F8FB0444039B9E
S3150800B3909C4206D30120FFF767FF0C4B01221A7067
S3150800B3A0E7E700F005FC60B9002343F002030193C8
S3150800B3B000230093074A0399091B074800F058FD24
S3150800B3C0D7E70423F1E700BF84160020881600207B
S3150800B3D080160020A5B200088C16002038B5FDF7A7
S3150800B3E091FD0446134B1B788BB900F0D3FC054638
S3150800B3F0E0B916F0ABF91048FBF765FF16F0EAFA64
S3150800B4000E4B00221A6000F023FE0D4B186000F068
S3150800B410DBF900F0ADFB0B4B1860064B01221A70E6
S3150800B4202046FDF773FD0025284638BD2046FDF762
S3150800B4306DFDF9E7C1160020BC1600208016002015
S3150800B440B81600208416002038B50138144B1B5C4A
S3150800B4500A46A1B101210B4411490B5472B1114B93
S3150800B4601D78012D0AD9FFF783FE0446012808D95D
S3150800B470032D09D00B4B1878A0420AD138BDFF21FD
S3150800B480E9E7FFF721FFF5E70228F3D100F08EFB85
S3150800B490F0E72146FFF77AFE024B1C70EEE700BF85
S3150800B4A0B4160020C016002010B50446FDF72AFD84
S3150800B4B0084B1B7864B101221344DBB2054A1370AA
S3150800B4C0B3FA83F35B09044A1370FDF71FFD10BD39
S3150800B4D0FF22F1E7B0160020AF16002010B5FDF7E1
S3150800B4E011FD0446FFF78EFE2046FDF70FFD10BD41
S3150800B4F038B504464160FDF705FD05462146034873
