S01900006275696C642F64656275672F6F742D7263702E73333711
S31508006000001000201568000831950008359500082D
S31508006010977501083995000841950008F56E01083D
S31508006020F56E0108F56E0108F56E0108F56E0108B2
S315080060304595000800D10108F56E0108F56E0108BE
S315080060403D670008F56E0108F56E0108F56E010852
S31508006050F56E0108F56E0108F56E0108F56E010882
S31508006060F56E0108F56E0108F56E0108F56E010872
S31508006070F56E0108F56E0108F56E0108F56E010862
S31508006080F56E0108F56E0108F56E0108F56E010852
S31508006090F56E0108656D0008F56E0108F56E0108D4
S315080060A0F56E0108896E0008656E0008F56E010830
S315080060B0F56E01087D610108096C0108DBCF01084E
S315080060C0D7CF0108B1630108E7CF0108DFCF010880
S315080060D0E16B0108E3CF0108496C0108B56C0108BA
S315080060E0F56E0108F56E0108F56E0108F56E0108F2
S315080060F0F56E0108F56E0108F56E0108F56E0108E2
S31508006100F56E0108F56E0108F56E0108F56E0108D1
S31508006110F56E0108F56E0108F56E0108F56E0108C1
S31508006120F56E0108F56E0108F56E0108F56E0108B1
S31508006130F56E0108F56E0108F56E0108F56E0108A1
S31508006140F56E0108F56E0108F56E0108237601085B
S31508006150614A0108F56E01080DCD010813CD010845
S31508006160F56E0108F56E0108F56E0108F56E010871
S31508006170F7B5012005F0A0FB0446002840F09F80F3
S31508006180534E544B544DC6E9003041F60B231022AA
S315080061907F21B06028605148AB8015F03CFA7F2219
S315080061A04F4B214630461A7009F0D6FD044600B911
S315080061B0FEE74C490AF06EF900B1FEE702212046D7
S315080061C016F015FA00B1FEE7204647490AF078FBB3
S315080061D000B1FEE70121204616F0B6FB00B1FEE746
S315080061E00121204616F0BEFB074600B1FEE7014630
S315080061F03C223E4815F00FFA80233A46204606F11F
S31508006200100116F0B8FA802800D0FEE7384E0120B3
S3150800621009F0F6FD2CA3D3E9002334602046CDE926
S3150800622000234FF0FF324FF0FF3316F01BFA0146FA
S3150800623000B1FEE7284605F09BFB0121084605F05C
S3150800624069FB0121306816F074F900B1FEE70024F5
S315080062504FF40C620021274815F0DDF9264B274A32
S315080062609C801C60264B6FF063001A609C80254A50
S31508006270254B1A60254A9C805A6103F025FE2B7926
S315080062800B2B00D9FEE76B790A2BFBD9204B1D6037
S3150800629002F034FF204605F0BBFB082230681146A1
S315080062A016F0E2F9044600B1FEE706F01DFC194BAC
S315080062B019481C7003B0BDE8F04011F080BB03B06C
S315080062C0F0BD00BFAFF300800BE020FF2202000004
S315080062D06039002095BB000858390020A3480020E3
S315080062E0A248002007001100ECE20108103900203E
S315080062F050390020F4390020C82900203C490020E4
S31508006300A0290020BD4800207829002068290020FF
S3150800631054390020BE490020DFE201080348044B37
S31508006320834202D0034B03B11847704794140020E8
S315080063309414002000000000064B0749C91A89106A
S3150800634048BF0131491003D0044B0BB10148184727
S31508006350704700BF94140020941400200000000029
S3150800636010B5064C237843B9FFF7D8FF044B13B191
S315080063700448AFF300800123237010BD8048002035
S31508006380000000001832020808B5054B1BB1054984
S315080063900548AFF30080BDE80840FFF7CDBF00BF52
S315080063A000000000282C002018320208A3F5803AC5
S315080063B0704700BF174B002B08BF134B9D46FFF7CE
S315080063C0F5FF00218B460F461348144A121A15F09A
S315080063D022F90E4B002B00D098470D4B002B00D00E
S315080063E098470020002104000D000D48002802D01F
S315080063F00C48AFF3008007F04BFD2000290015F08C
S3150800640017F807F07DFB00BF000008000000000039
S31508006410000000000010002094140020EC4A002020
S315080064200000000000000000BFF34F8F0549064B2F
S31508006430CA6802F4E0621343CB60BFF34F8F00BF14
S31508006440FDE700BF00ED00E00400FA054FF0006329
S315080064509B6A03F17842B2F5C04F03D21968064A1F
S31508006460914203D0002303708360704701220270B3
S315080064709A689B694260F7E707B0CD5E08B54FF0AA
S315080064800053024A1A60FFF7CFFF00BF02020FF05F
S3150800649073B54F4B04461A781AB102221A7002B025
S315080064A070BDCDE900220028F9D001261E7010F033
S315080064B0AAFE484D484B18600DF0A8F92B785BB931
S315080064C000F0F4FC40B945480823454A45490068A8
S315080064D009F046FA00B92E70434B5A6E62619B6EFC
S315080064E0424AA3614FF480439366414B5968E16180
S315080064F040499960196E2160596E6160D3F8701130
S31508006500A160196CE160596C21613B49086C1864FB
S31508006510496C5964012151661B6E9C0441D5374A62
S31508006520D368D807FCD4364B1A68531C3ED04FF4B0
S3150800653080139340334A13664FF400730426314C94
S315080065402666236610F093FC01300DD010F08FFC00
S3150800655040F20113984207D04FF4005323664FF4D4
S3150800656080432366C4F870610823264C6846236670
S315080065704FF4805323664FF0006323664FF40023DD
S3150800658001A9636610F057FC009B2366019B6366AE
S315080065902B78002B83D0124B1A6822665B686366D9
S315080065A07DE7194AD368D907FCD4BCE7174B1B7893
S315080065B0002BC1D14FF400720C4B5A6603F5A62383
S315080065C05B68002BB8D14FF480120E4B1A66B3E7FE
S315080065D08248002083480020602C0020D410002028
S315080065E0642C0020007108000080005000900050C4
S315080065F00080004455CEAC0000C0005400000440A2
S315080066009C1000200090004400000450814800209F
S3150800661070B5224D04462E78012E02D001232B7028
S3150800662070BD0028FCD010F022FC01300BD010F011
S315080066301EFC40F20113984205D0194B194A5E66B2
S31508006640D368DE07FCD42268174B1A6662685A6656
S31508006650A268C3F87021E2681A6422695A64E2697A
S31508006660D00744BF00229A60104B1A68013207D13E
S315080066700F4A127822B90F494968C90748BF1A60F4
S3150800668062690D4B5A66A2699A660DF0C7F80B4BFC
S31508006690186810F0BEFD0023C1E700BF824800203D
S315080066A00090004000000440008000449C10002038
S315080066B08148002000C0055000800050602C002052
S315080066C070B54FF00064A36A03F17842B2F5C04F83
S315080066D024D21A68134B9A4220D1134E337813F0FA
S315080066E0FD0F02D00024204670BD1048FFF7D0FEEB
S315080066F001254FF480330E4A0E49C2F88051CB600B
S3150800670015600D4A1361A36ADB6998470446074872
S31508006710FFF77EFF002CE6D13570E3E74FF481746E
S31508006720E1E700BF07B0CD5E81480020402C00207D
S3150800673000E100E000A000440090004413B5204B9F
S315080067401B7803B9FEE700231E4CCDE900336A46E1
S3150800675008231D49206809F003F9F0B91B4AD2F845
S315080067604031D2F840211F2B4FF0010310D9203AAF
S315080067709340019A1A43019208236A4612492068EF
S3150800678009F0A4F84FF00053114A1A60FFF74CFEBF
S315080067909340009A1A430092EEE70E4B9842F1D1C5
S315080067A00A4AD2F84031D2F840211F2B4FF0010394
S315080067B085BF203A93409340019398BF0093DBE747
S315080067C082480020D4100020007108000080004490
S315080067D00B020FF00BE000F00346054A0549106866
S315080067E003448B428CBF4FF0FF301360704700BFE5
S315080067F0A0100020000004200348044A0449121A85
S31508006800921010F078BB00BF24360208243602081E
S31508006810EC4A002008B500F02FF8FFF7EDFF124B01
S3150800682012498B4212D30020114B12498B4218D3BE
S31508006830FFF7C0FD186850F82240586840F8224013
S31508006840013298688242F5D30C33EAE70022F8E76A
S315080068501C6844F8220001325C68A242F8D3083367
S31508006860E4E70022F8E700BF203202082C320208CB
S315080068702C3202082C3202084FF480414FF0FF30C8
S31508006880114B124A10B59A60D3F8882042F4700268
S31508006890C3F888200E4A91660E4901F50052106623
S315080068A00D4850660220C3F8D000BFF34F8FBFF3E0
S315080068B06F8F01244FF440330848C0F88041D360F5
S315080068C004600B6110BD00BF00ED00E00060000829
S315080068D00090005000800044F7FF370000E100E018
S315080068E0014B1868704700BFA8100020084B1B6FA3
S315080068F003F00703022B04D0032B05D0012B05D088
S31508006900FEE7044B18687047034BFBE703487047DC
S3150800691000800050A8100020B0100020002D310182
S3150800692008B5FFF7E3FF054B1B6FC3F303330133CA
S31508006930B0FBF3F0024B186008BD00BF00800050A2
S31508006940A41000200048704700B4C404014B18681E
S31508006950704700BFB0100020054B1860054B1B6F31
S3150800696003F00703032B01D1FFF7DABF704700BF17
S31508006970B01000200080005000487047002D3101FB
S315080069804FF0B4439868C0F304400C280AD8DFE8EF
S3150800699000F00B0909090909072119091B1D1F0020
S315080069A00F487047002070479B6803F04073B3F1A7
S315080069B0807F11D0B3F1007F10D00A4A002B08BFA0
S315080069C01046704708487047084870470848704797
S315080069D0084870470848704708487047084870478D
S315080069E0405DC60000093D00C0EA210180BA8C015D
S315080069F00048E801005A62020024F40080841E0060
S31508006A0040420F00014B1868704700BFAC100020C9
S31508006A102DE9F04F9A46564B85B01B7806460F4629
S31508006A201546DDF83C909DF844B0DDF85080002B03
S31508006A3000F09780072A00F296800E9B002B00F044
S31508006A409280B9F1000F00F08E80129BB3F5006FAB
S31508006A5000F38980012803D1109B002B00F0838066
S31508006A60444B03EB05131B7B002B7ED0424C1022B4
S31508006A700021684614F0CFFD04EB45141022A7BB8D
S31508006A803946204614F0C7FD43F210036380BBF174
S31508006A90000F03D1E37843F00303E370364A0E9BF5
S31508006AA002EB451CCCE90193129B6901581E9DF81F
S31508006AB04C30C0F30A0003F003039B0643EA001EAA
S31508006AC053582E48012E00EA03004EEA0003CDF87B
S31508006AD000A0535017D0B8F1000F2ED19CF8023001
S31508006AE068F304138CF8023027E00021204614F0DE
S31508006AF092FD4FF444736380BBF1000FCED1E37867
S31508006B0043F03003C9E713230CF1100ECCF80C3010
S31508006B109CE80F008EE80F006FF00301DCF81C20DC
S31508006B20109B61F39F02012FCCF81C20CCF814307F
S31508006B3003D1CCF81890CCF8043000270D4A290167
S31508006B4002EB051342F80180159A28465A606946F1
S31508006B5022469F605E7301F097FF384605B0BDE890
S31508006B60F08F0748FAE70748F8E70748F6E700BF4F
S31508006B70844800206C2D00206C2C00200F80FFF329
S31508006B80028000F0018000F0078000F038B5124B53
S31508006B9005461B78DBB1E0B110F035FB0F4A002340
S31508006BA01146147B54B92B6001251A0101EB031316
S31508006BB01D738C5010F02DFB204638BD0133082B71
S31508006BC002F11002EDD110F024FB0548F5E705485F
S31508006BD0F3E70548F1E700BF844800206C2D002044
S31508006BE0048000F0028000F0018000F0154B13B518
S31508006BF01868002301908DF8043010F004FB124B3E
S31508006C001C7824B110F005FB104802B010BD012213
S31508006C101A7010F0FEFA0E4B01A81C731C7783F845
S31508006C202C4083F83C4083F84C4083F85C4083F85A
S31508006C306C4083F87C4008238DF8073001F0F2FE9B
S31508006C402046E2E750D1010884480020038000F07E
S31508006C506C2D00200A4A08B512785AB107280BD8B5
S31508006C60084A02EB00131B7B43B1002101F0CCFE5E
S31508006C70002008BD0448FCE70448FAE70448F8E79A
S31508006C80844800206C2D0020028000F0018000F06E
S31508006C90078000F00A4A08B512785AB107280BD8B7
S31508006CA0084A02EB00131B7B43B1012101F0ACFE3D
S31508006CB0002008BD0448FCE70448FAE70448F8E75A
S31508006CC0844800206C2D0020028000F0018000F02E
S31508006CD0078000F00C4B1B787BB107280FD871B1E1
S31508006CE00A4B03EB00131B7B5BB1094BDB6AC34002
S31508006CF003F0010300200B707047064870470648EA
S31508006D0070470648704700BF844800206C2D002055
S31508006D1000000450028000F0018000F0078000F0B7
S31508006D200B4A10B512780C4662B107280CD859B12F
S31508006D30084A02EB00131B7B43B101F0F1FE206009
S31508006D40002010BD0448FCE70448FAE70448F8E7C1
S31508006D50844800206C2D0020028000F0018000F09D
S31508006D60078000F0184B2DE9F0411F6D5B6D1F4041
S31508006D7000D5FEE701260025144CDFF85880374277
S31508006D8018D02368C8F85060A3B1A1682846013115
S31508006D906268A1609847637B012B0BD150B90C4BF5
S31508006DA003EB45131A7B60F341021A731A7F60F3EB
S31508006DB041021A770135082D4FEA460604F11004F8
S31508006DC0DDD1BDE8F08100BF000004506C2D002025
S31508006DD06C2C00200020045070B5044601250B4E8B
S31508006DE004B970BD94FAA4F0B0FA80F005FA00F37D
S31508006DF006EB001224EA03045368002BF0D0117B3B
S31508006E0011B191689847EBE79847E9E7EC2D002020
S31508006E1008B5192001F0D2FB28B14FF00072074BD4
S31508006E20C3F880211A601A2001F0C8FB28B14FF078
S31508006E308062024BC3F880211A6008BD00E100E0B9
S31508006E4038B505460C4610F0DEF90022044B03EB74
S31508006E5005135C601A73BDE8384010F0DAB900BF54
S31508006E60EC2D0020074BD3F82404D3F8202403F58F
S31508006E700053104000F0553020F05020C3F820048D
S31508006E80FFF7AABF00C00350074BD3F82404D3F872
S31508006E90202403F50053104000F0AA3020F0A0206B
S31508006EA0C3F82004FFF798BF00C00350024B1968C7
S31508006EB0024B186808F030BCB4100020D41000202B
S31508006EC070B59400224605460E4616F0F5F8431CA2
S31508006ED00AD058B922463146284614F072FB0028D3
S31508006EE0034808BF002070BD0248FCE70248FAE7DD
S31508006EF010E000F021E000F024E000F010B50446B0
S31508006F0016F0DEF8431C10D088B901F0ABFE234614
S31508006F1020F003002044984201D1002010BD53F808
S31508006F20042B0132F7D00348F8E70348F6E703488D
S31508006F30F4E700BF0EE000F021E000F024E000F0E6
S31508006F4008B510F055F9014B186008BDDC3600206D
S31508006F50014B186810F050B9DC36002038B141B141
S31508006F60013AB2F5006F044838BF0020704703485D
S31508006F7070470148704700BF037000F0027000F0C8
S31508006F80104930B50A78104B2AB9C3E90022C3E97B
S31508006F90022201220A700C4900220C4654F8045BAE
S31508006FA0854208D00132042AF8D1002251F8044B50
S31508006FB01CB943F82200002030BD0132042AF5D15D
S31508006FC00248F9E785480020E0360020027000F004
S31508006FD038B504460D4610F016F9A3889BB223B9B6
S31508006FE02B6010F016F9064838BD142263889BB248
S31508006FF002FB034408342C6010F00BF90020F3E779
S315080070000B7000F010B50446FFF7F0FD002104F1FF
S315080070100800FFF7BBFD014608B1044810BD04F19E
S315080070200C00FFF7B3FD0028F8D0F6E70E7000F065
S31508007030F8B5044616460F4610F0E5F8A388E28828
S315080070409BB29A42054605D80023336010F0E1F852
S315080070501748F8BD1422238807F1100C9BB202FBCF
S3150800706003433A460833174603CF67451860596005
S315080070703A4603F10803F6D11422386818602388C3
S3150800708028469BB202FB0343083333602388E28811
S315080070909BB20133B3FBF2F102FB11339BB223809F
S315080070A0A38801339BB2A38010F0B3F80020D0E781
S315080070B00A7000F07FB5012380F8303090F836303A
S315080070C09BB903682433826B013282630C4A0490AD
S315080070D00392002202924A680192012200920A68EB
S315080070E04169C0680FF034FF07E0022B02D103683C
S315080070F03C33E8E7002380F8303007B05DF804FB3E
S31508007100557700087FB5012380F8313090F836307E
S315080071109BB902683C32836B013383630C4B049042
S315080071200393002302934B680193012300930B6892
S31508007130016980680FF0F2FE07E0022B02D10268AF
S315080071404432E8E7002380F8313007B05DF804FBE5
S31508007150C572000890F83530022B0DD11422302361
S31508007160417F13FB0123054A9B5890F8212023FAF7
S3150800717002F000F0010070470020704730C003504D
S31508007180002313B51D4A52F8044B94F82110814286
S315080071900ED00133042BF6D102B010BD0028FBD166
S315080071A09DF80730002BF7D0A068FFF753FDF3E7EB
S315080071B094F83530022BEFD12046FFF7CBFF637EDC
S315080071C02076022BE8D194F8323003F0FF02002B28
S315080071D0E2D1A0680DF107018DF80720FFF77AFDC7
S315080071E0237E1BB194F83330002BD7D00023A06838
S315080071F084F83330FFF74EFDCEE700BFE0360020B7
S3150800720090F8363053B9042103790A4A03F2391340
S315080072105B01D150022203685A617047022B07D1DD
S315080072200068816C11F0020118BF062110F030B811
S31508007230704700BF00C0035090F8363063B901228A
S3150800724003685A619A69D207FCD504210379084A6A
S31508007250B9335B01D1507047022B07D10068836CA4
S315080072609B074CBF0521092110F012B8704700BFD3
S3150800727000C0035010B590F83630044663B90422AE
S3150800728003685A619A699207FCD523790C4AB9337F
S315080072905B011021995010BD022BFCD10068836C4C
S315080072A0DB074CBF052106210FF0F2FF237941F2D7
S315080072B094425B0103F1A04303F57033E9E700BF8D
S315080072C000C003502DE9F3411446D06A01A9FFF71F
S315080072D07FFEA36BA36B013BA363164B984222D098
S315080072E00027019D2F61AF600FF08DFFD5F80C8048
S315080072F00646B8F1000F04D0D5E9002339462046E2
S31508007300C047E06A01A90FF0E1FEE06A83889BB2F4
S315080073106BB101A9FFF75CFE20460199FFF7F2FE63
S3150800732030460FF076FF012002B0BDE8F08184F800
S315080073303130F5E70B7000F02DE9F04104461746A9
S31508007340FFF70CFE88460646E8B9152001F044F911
S315080073500546E26A93889BB213B194F83230ABB112
S3150800736094F83630BBB923689D6915F0020527D015
S31508007370012384F834304744B845206844D18369EA
S315080073809B06FCD545B33046BDE8F081002DE1D01B
S31508007390FFF7E8FCDDE7022B12D123689D6C15F098
S315080073A002050DD0012384F8343047444745206848
S315080073B031D142F22002836C32EA0303FBD1E1E7C2
S315080073C02046FFF757FF012394F8365084F83430E7
S315080073D0002DD0D0022D1CD094F8363003B3022BE2
S315080073E0D1D12068816C11F0010118BF09210FF075
S315080073F04FFF42F29442102123795B0103F1A04327
S3150800740003F570339950BEE718F8011B0FF0CAFF51
S31508007410B2E70025C9E718F8011B0FF03EFFC5E7DC
S3150800742010212379044A03F239135B01D15008224B
S3150800743023685A61A7E700BF00C0035010B5044689
S3150800744080B190F832302BB9FFF784FE10B9A068E6
S31508007450FFF700FC002094F832300133DBB284F8E1
S31508007460323010BD0048FCE7027000F010B5044643
S31508007470A0B190F832309BB190F83230012B05D18B
S31508007480FFF768FE10B9A068FFF704FC002094F81F
S315080074903230013BDBB284F8323010BD0148FCE7DC
S315080074A00148FAE7027000F0057000F037B590F869
S315080074B035500446022D1DD1012290F82230457E12
S315080074C0817F9A403020164B3DB900FB013303F506
S315080074D001531A60002003B030BD012D04D100FB12
S315080074E0013303F58253F4E7247E00FB0133002CB5
S315080074F0F7D1ECE7012DEDD1037E73B911238DF891
S315080075000730FFF79BFF2A4620460DF10701FFF7D4
S3150800751013FF2046FFF7AAFFDCE71323EFE700BFB8
S3150800752000C003502DE9F04305466D4F89B001AE02
S315080075300C460FCF0FC697E8070086E80700002D10
S3150800754000F0CB8024B9674E304609B0BDE8F08319
S3150800755060220021284614F05EF82846FFF710FD41
S3150800756006460028F0D1237D85F83530236885F84E
S3150800757036002B60227B2A715B4A9342E3D129238A
S315080075806B624FF4802359498046C5E90413D4E950
S315080075900723AA6210805080908085F83000EB623D
S315080075A0188058809880636885F831000393E389CA
S315080075B085F83300ADF81430238A0121ADF812306E
S315080075C0A37C3A208DF81030E37C494F8DF81630AD
S315080075D005238DF8113000F0EBFB0121686A00F0F5
S315080075E0E7FB206801A98DF8046001F097FB1421D8
S315080075F0237B03F139025201B950267AA07A07EBA8
S31508007600431346EA0042C3F83827617AE27A41EA28
S31508007610024CC3F830C7EE76E877297785F820203C
S31508007620637D01216B77A37D284685F82130E37DAC
S31508007630AB77237E85F822300FF0D9FC0646002862
S3150800764082D10FF0E0FD237D8146032B33D1022141
S31508007650227B02F1B9035B01F950042107EB4217BB
S3150800766041F22C72236803F58053D965217EE37DA8
S3150800767043EA0143BB50A27D637D43EA024341F2DC
S315080076802872BB504FF0FF32206800F500539A6409
S31508007690237D032B0CBF052104210FF074FE4FF444
S315080076A04062236828465A61FFF7ACFC06464846FE
S315080076B00FF0AFFD48E7022BE4D195F821000D49FC
S315080076C0FFF7BEFBFFF7A4FB4FF4007328462B8396
S315080076D085F81A80FFF7EAFED4E7074E34E700BFBD
S315080076E078D10108037000F000C0055002000400BC
S315080076F000C0035081710008027000F0F0B587B031
S3150800770005461646FFF72AFC0446F0B90493104BC3
S31508007710CDE901166A46A86A01A903960593FFF7FB
S3150800772087FC044688B995F8303073B92846FFF7C0
S3150800773083FD28460099FFF7BDFC95F83530032BE5
S3150800774003D028462C76FFF7B1FE204607B0F0BDD9
S31508007750017000F0F7B51446906A01A9FFF738FCE6
S31508007760A36BA36B013BA363384B984230D094F8C4
S315080077703610019D002939D123689A6C12F40072DB
S3150800778029D0334AA9602A614FF4007203F50053E1
S315080077909A640FF038FDEF68064637B16A68AB6839
S315080077A02046D31A29692A68B847A06A01A90FF0A2
S315080077B08DFCA06A8588ADB2002D37D001A9FFF7E8
S315080077C007FC20460199FFF775FC30460FF021FDAE
S315080077D0012003B0F0BD996CC80523D51D49AA60E0
S315080077E029614FF4807203F50053D1E7022919D1B4
S315080077F02368DA6C12F4007209D0154A03F50053AF
S315080078002A610022AA604FF40072DA64C1E7D96CD3
S31508007810C90507D50F49AA6029614FF4807203F597
S315080078200053F2E700232B61AB60B2E70123204641
S315080078302376FFF73BFE94F8353084F83050032B57
S31508007840C3D02046FFF7DCFCBFE700BF0B7000F093
S315080078500D7000F00C7000F0F0B587B004461646BF
S31508007860FFF77CFB054658BB0493194BCDE9011677
S31508007870059394F8363003962BBB23689B6903F06F
S31508007880020313B92046FFF7F5FC6A46E06A01A928
S31508007890FFF7CEFB054698B994F8313083B90FF057
S315080078A0B2FCE36A06469B889BB233B12046009930
S315080078B0FFF728FC012384F8343030460FF0A9FC82
S315080078C0284607B0F0BD022BDCD123689B6CD6E7AF
S315080078D0017000F0044BD3F88420D206FBD4D3F809
S315080078E08400C0F3811070470040005038B5104B33
S315080078F00546D3F880300C4603F00303022B0BD061
S31508007900032B0DD0012B0FD1FEF7F0FF0E2305B187
S31508007910286004B1236038BDFFF732F80723F6E77D
S31508007920FEF7DEFF0623F2E700231846EFE700BF5F
S315080079300080005038B5184B0546D3F820010C4690
S3150800794000F00700062823D8DFE800F0040A0E1620
S31508007950121A1E00012305B1286004B1236038BD40
S31508007960FEF7BEFF0523F6E7FEF7F0FF0323F2E76F
S31508007970FFF706F80723EEE7FEF7FEFF0223EAE71E
S31508007980FEF7AEFF0623E6E7FEF7E0FF0423E2E78D
S3150800799000231846DFE700BF0080005038B5174BB4
S315080079A00546D3F828310C4603F00703013B052B9F
S315080079B020D8DFE803F003131B0F0B17FEF790FF21
S315080079C0052305B1286004B1236038BDFEF788FF9A
S315080079D00623F6E7FEF7D4FF0723F2E7FEF7B6FF1E
S315080079E00323EEE7FEF7B2FF0423EAE7FEF7C4FF38
S315080079F00223E6E700231846E3E700BF00800050AD
S31508007A0073B50D460021114B0191D3F88041064606
S31508007A1004F00304022C13D0032C0CD0012C13D130
S31508007A2001A8FFF787FF10240EB1019B336005B14B
S31508007A302C6002B070BDFEF7A3FF07240190F3E7A0
S31508007A40FEF79AFF0190EFE70C46EDE7008000503D
S31508007A50002337B50193164B0546D3F820320C465A
S31508007A6003F00703042B21D8DFE803F0030B1116F4
S31508007A701B0001230DB1019A2A6004B1236003B0EB
S31508007A8030BD002101A8FFF789FF1223F2E7FEF7B0
S31508007A9077FF07230190EDE70FF03AFA0A230190E2
S31508007AA0E8E7FEF7AFFF09230190E3E70023E1E7E4
S31508007AB00080005038B5104B0546D3F840310C46C7
S31508007AC003F00303022B0BD0032B0DD0012B0FD190
S31508007AD00FF01EFA0A2305B1286004B1236038BDE9
S31508007AE0FEF790FF0923F6E70FF015FA0C23F2E7E5
S31508007AF001230020EFE700BF00800050002337B5C0
S31508007B000193164B0546D3F860320C4603F007037B
S31508007B10013B032B1FD8DFE803F0020E19140021DE
S31508007B2001A8FFF707FF10230DB1019A2A6004B1D7
S31508007B30236003B030BD002101A8FFF7BBFF112366
S31508007B40F2E7FEF71DFF07230190EDE7FEF714FFA6
S31508007B5002230190E8E70023E6E700BF0080005013
S31508007B60002337B50193164B0546D3F894320C46D5
S31508007B7003F00703013B032B1FD8DFE803F0020ECF
S31508007B801914002101A8FFF7D5FE10230DB1019A9B
S31508007B902A6004B1236003B030BD002101A8FFF7B5
S31508007BA089FF1123F2E7FEF7EBFE07230190EDE7C5
S31508007BB0FEF7E2FE02230190E8E70023E6E700BFAE
S31508007BC00080005038B5144B0546D3F800020C4621
S31508007BD000F0070004281BD8DFE800F003090D11A0
S31508007BE01500012305B1286004B1236038BD0FF0E4
S31508007BF08FF90A23F6E7FEF705FF0923F2E70FF0E8
S31508007C008AF90C23EEE7FEF78BFE0F23800AE9E7D5
S31508007C1000231846E6E700BF0080005038B5144B2D
S31508007C200546D3F808020C4600F0070004281BD8BE
S31508007C30DFE800F003090D111500012305B12860DE
S31508007C4004B1236038BD0FF063F90A23F6E7FEF79F
S31508007C50D9FE0923F2E70FF05EF90C23EEE7FEF7EB
S31508007C605FFE0F23800AE9E700231846E6E700BF10
S31508007C700080005038B5104B0546D3F840320C4604
S31508007C8003F00303022B0BD0032B0DD0012B0FD1CE
S31508007C900FF03EF90A2305B1286004B1236038BD08
S31508007CA0FEF7B0FE0923F6E70FF035F90C23F2E7E5
S31508007CB001230020EFE700BF0080005038B5104BC5
S31508007CC00546D3F860310C4603F00303022B0BD0AC
S31508007CD0032B0DD0012B0FD10FF01AF90A2305B18A
S31508007CE0286004B1236038BDFEF78CFE0923F6E749
S31508007CF00FF011F90C23F2E701230020EFE700BF8C
S31508007D0000800050B0F5207F1FD009D8B0F5007F5D
S31508007D1015D003D868B1B0F5C07F0AD000200CE0B2
S31508007D20B0F5607FFAD10B4BD3F88000C0F3011091
S31508007D3003E0084B186FC0F3033001307047054B5A
S31508007D40D3F89000C0F30460F7E7024B186FC0F34E
S31508007D508020F2E70080005002464FF48030104B36
S31508007D6010B598660020FFF7CDFF504341F67132F3
S31508007D700C4BDC69DA635A6804F4803422F4401246
S31508007D8059B90949884294BF0020012000050243D9
S31508007D905A600CB10022DA6310BD0449F2E700BF4D
S31508007DA00090005000000350005A6202002D310175
S31508007DB0430905D0012B0CD0022B084B18BF002312
S31508007DC000F01F0039B103F58053012282401A6082
S31508007DD07047034BF4E703F50053F6E76880005055
S31508007DE0648000501FB5002180280446CDE90011A3
S31508007DF000F0A58035D85E2846D85E2844D8DFE846
S31508007E0000F0A2434343434343434343434343436B
S31508007E104343434343434343434343434343434324
S31508007E204343A2AAA2AABABABABABAAAC44DDA717E
S31508007E304DAAAAAA4343434343434343AAAAAA795A
S31508007E40E4AA43434343434343434343434343BA75
S31508007E50A2A2A2DF4D4DE9885EBF4343434343993F
S31508007E60A200B0F5B06F00F090802DD8B0F5207F55
S31508007E7071D00CD8B0F5C07F65D0B0F5007F65D05D
S31508007E80B0F5807F00F08680009804B010BDB0F58C
S31508007E90607F6BD00DD8B0F5407FF5D1FEF740FD79
S31508007EA002464FF42070FFF72DFFB2FBF0F252089E
S31508007EB05AE0B0F5806F5ED0B0F5A06FE4D100212E
S31508007EC06846FFF7C5FDDFE7B0F5106F78D016D81E
S31508007ED0B0F5E06F79D00AD8B0F5C06F6BD0B0F5C1
S31508007EE0D06FD1D100216846FFF76CFECCE7B0F51C
S31508007EF0F06FC9D100216846FFF7E0FEC4E7B0F588
S31508007F00406F3DD013D8B0F5206F63D0B0F5286F19
S31508007F10BAD10021324B0391D3F8703203F0030330
S31508007F20012B02D103A8FFF7C5FD039B3CE0B0F582
S31508007F30486FA9D100216846FFF712FEA4E7FEF7AD
S31508007F40D5FC0090A0E7FEF7EBFCFAE7FEF7CEFCBF
S31508007F500246204604E0FEF7E3FC02464FF4207092
S31508007F60FFF7D0FEB2FBF0F200928DE701A8FFF70B
S31508007F70BDFC019AEDE700216846FFF7DBFC83E7C5
S31508007F8000216846FFF70AFD7EE700216846FFF7ED
S31508007F9037FD79E74FF0E02302911B695B0705D5AA
S31508007FA0FEF7BEFC0290029B00936DE703A902A8A8
S31508007FB0FFF780FDF7E700216846FFF77BFD63E7DB
S31508007FC000216846FFF72AFE5EE700216846FFF7AC
S31508007FD051FE59E700216846FFF790FD54E700BFB8
S31508007FE00080005008B58020FFF7FCFE034B98423E
S31508007FF09EBF4FF48032024B1A6708BD005A6202D0
S3150800800000A000501FB503460020B3F5807F0190FD
S3150800801000F0C18064D85D2B55D84C2B07D82D2B82
S3150800802048D8232B2CD8019805B05DF804FB4D3BA6
S31508008030102BF8D801A252F823F000BF8D81000852
S315080080402780000827800008278000084381000849
S31508008050278000082780000811820008618100082F
S315080080600781000807820008278000082780000883
S315080080702780000827800008278000081B82000840
S31508008080243B092BCFD801A252F823F08D81000892
S315080080908D8100088D8100088D8100088D8100087A
S315080080A027800008838100082780000823810008AC
S315080080B0C38100083D2B7FD03E2BB4D1002001A9F7
S315080080C0FFF7D8FDAFE7802BADD1594B1B6F03F0F7
S315080080D00703013B032BA6D8DFE803F0514E858D35
S315080080E0B3F5F06F68D021D8B3F5B06F49D00FD883
S315080080F0B3F5607F00F0838095D3B3F5806F45D0E4
S31508008100B3F5A06F8FD1002001A9FFF7A1FC8AE77C
S31508008110B3F5D06F55D0B3F5E06FCFD0B3F5C06FD8
S3150800812081D1002001A9FFF7C5FC7CE7B3F5206FD4
S315080081306ED00BD8B3F5086F48D0B3F5106F7FF43F
S3150800814072AF002001A9FFF769FD6CE7B3F5406F30
S3150800815059D0B3F5486F60D0B3F5286F7FF463AF95
S31508008160334BD3F8703203F00303012B5AD0022B9A
S315080081700CBF1523002300E00523019353E70223D0
S31508008180FBE7002001A9FFF73BFC4CE7002001A90B
S31508008190FFF7D0FB47E74FF0E02302901B695B0728
S315080081A005D5FEF7BDFB0D230393039BE5E703A95E
S315080081B002A8FFF77FFCF8E7002001A9FFF77EFD7C
S315080081C031E7002001A9FFF7FDFC2CE7184BD3F88F
S315080081D0003103F00303022B07D0032B09D0012B30
S315080081E00BD1FEF7B3FB0323C7E7FEF70BFC092306
S315080081F0C3E70EF08BFE0823BFE70123BDE701A9FD
S31508008200FFF774FB0FE7002001A9FFF7C7FB0AE792
S31508008210002001A9FFF772FC05E7002001A9FFF776
S315080082209FFC00E7002103A8FFF744FC1123A4E7FD
S31508008230008000504FF48012034B5A664FF4803288
S31508008240024B9A62704700BF009000500050005AD7
S3150800825038B504468020FFF7D5FE032800F0838052
S315080082604FF48012524B4FF0A0615A6645F60E0243
S31508008270504BC3F88020504A91624FF4803102F582
S31508008280805291629A6DD203FCD4996D11F08041A7
S31508008290FBD1D4E90002120542EA0062E07B024300
S315080082A0207B42EA0042607B42EA0032A07B42EA37
S315080082B080121A619869D4E90452120642EA856264
S315080082C000F000400243A07EE57E0243207E42EA9B
S315080082D00042607E42EA00229A611A6AE06922F048
S315080082E00F0242EA8502354D00283DD11A6294F8FC
S315080082F02420996A94F82000D200294042EA4012C4
S315080083000A4394F8211042EA011242F480329A6232
S315080083102B49284A936D31EA0303FBD14FF080714C
S31508008320254881621369A56823F4700343EA055357
S3150800833013614FF00043836194F822300BB9214B47
S31508008340996294F823303BB94FF480321D4B9A62F8
S31508008350184A936D5B00FCD494F825301BB1154B75
S31508008360194AC3F8802038BD024342F008020228A1
S315080083701A6208D119614FF40852996113484FF4EB
S315080083807F410EF0FEFE0B4994F822308A6A94F873
S3150800839020001B062A4043EA4013134394F824207E
S315080083A043EAC20394F8232043EA02438B62D3E7E5
S315080083B0009000500040005A0050005AC7FFFEFEC9
S315080083C0030001000060005AF1A7FFFF3440005A7D
S315080083D0014B93F900007047D6120020F0B5D0E99A
S315080083E001434FF400061A4A4178057856664FF459
S315080083F0D156022702F5B8325662164E4F297760D3
S315080084004FF0010728BF4F2106F580567760166999
S31508008410F603FCD441EA052151611B01417B43EA7D
S3150800842004230B43017B43EA41039360C37B817BAF
S315080084301B0143EA4113417C0B43017C43EA410398
S315080084405360837C13B16FF4D1535362F0BD00BF00
S315080084500090005000100250014B1880704700BF72
S31508008460CA120020014B1880704700BFC8120020AE
S31508008470B0F5207F10B50C465DD008D8B0F5007F62
S315080084804ED003D8C0B1B0F5C07F15D010BDB0F539
S31508008490607FFBD12C4B4C1ED3F8FC202B4912F0E5
S315080084A0807F4FEA041427D1D1F8803023F03003B7
S315080084B02343C1F88030E9E70EF072FE0EF07EFE27
S315080084C04FF48031224B214A1967136F013C23F47C
S315080084D0704343EA04331367FEF722FA0446FFF7AC
S315080084E0F9F9C0F1020120460EF062FE00F042F8EA
S315080084F0BDE81040FFF776BDD3F8FC2022F0807265
S31508008500C3F8FC20D1F8802022F030022243C1F8BB
S315080085108020D3F8FC2042F08072C3F8FC20B5E72F
S315080085200A4A4C1ED2F8903023F0F85343EA046303
S31508008530C2F89030AAE7054A4C1E136F23F48063ED
S3150800854043EA84231367A1E700ED00E000800050AA
S315080085500090005008B50121022000F079F80EF0CD
S315080085601FFE0EF02BFE4FF48032014B1A6708BD32
S315080085700090005008B54FF4C070FFF733FCBDE813
S3150800858008400449884294BF012102214FF4207013
S31508008590FFF76EBF80F0FA020028ABBF00F160401B
S315080085A0054B00F5614000F00F00ACBF90F80003E2
S315080085B0185C0009704700BF14ED00E0054B42093E
S315080085C053F8223000F01F0023FA00F0C04300F0F1
S315080085D00100704700E100E0014608B5EFF310839B
S315080085E0DB0702D50122104608BDFFF7E7FF024662
S315080085F00028F7D10846FFF7CFFF0146EFF31183AE
S3150800860013B1B0EB131FEDD2074B5B68C3F3080336
S31508008610002BE8D0103B58B2FFF7BEFF88428CBF4C
S3150800862000220122DFE700BF00ED00E0024A536B9B
S315080086300342FCD1704700BF00400950034A017944
S31508008640D36E23F030030B43D366704700400050C7
S31508008650F8B504461C4BD3F88420D106FBD4D3F8CE
S315080086608430C3F381139C422CD0FEF73FF9012CCA
S31508008670064602D121460EF09BFD0EF0B9FD4FF0DD
S315080086800072124B07465A6620460EF0C5FD4FF497
S3150800869080630D4D621E93402B676B6E9A0103D45F
S315080086A0D5F884309B060AD538460EF0A5FD022C6F
S315080086B008D13046BDE8F84000210EF079BDD5F85E
S315080086C08430EAE7F8BD00BF004000500060005063
S315080086D010B50C4608B9FEF709F9074B21461B7871
S315080086E03BB1064B984204D80120BDE81040FFF77D
S315080086F0AFBF0220F9E700BF86480020005A620291
S315080087004FF0004238B5244B244C5A664AF6CD330E
S31508008710656C014605F00105236428BB0120FFF7B7
S3150800872085FF6368DB0715D51D4B586008461D4B4A
S31508008730226BD2070CD4984208D1072415B1174BDF
S31508008740194A1A6413F0B0FF204638BD0130EFE726
S315080087509842F2D00024F1E70132236B13F00803A4
S3150800876005D08A42F8D1E8E700220E49F5E78A42A1
S31508008770E3D020210A4A91620121A2F58052516074
S315080087800649084A886A800603D49342D5D001333D
S31508008790F8E79342DDE700BF00900050004009501B
S315080087A00060095040420F003254FFFF4FF000426C
S315080087B038B5164B01465A664AF6CD33144C154A57
S315080087C0656C236443780B205B0043F00103D36395
S315080087D0FFF72CFF63688A7823F4F87343EA0213D9
S315080087E06360CA784B7943EA0223A3600A798B79D6
S315080087F043EA022323610878FFF782FFEB0744BFA9
S31508008800054B236413F050FF012038BD009000503B
S3150800881000400950004000503254FFFF4FF000421C
S31508008820124B70B55D6E03F580535A664AF6CD3322
S3150800883004460F4980204E6C0B64FFF7F7FE0B6A5F
S3150800884023F00F030F2C94BF234343F00F030B624F
S31508008850F30744BF074B0B64002DA2BF4FF000423D
S31508008860054B5A6613F020FF70BD00BF008000500C
S31508008870004009503254FFFF00A000504FF000425C
S31508008880104B70B55D6E03F580535A664AF6CD33C4
S3150800889004460D4980204E6C0B64FFF7C7FE0B6A31
S315080088A023F4F85343EA04230B62F30744BF074B48
S315080088B00B64002DA2BF4FF00042054B5A6613F019
S315080088C0F3FE70BD00800050004009503254FFFF8F
S315080088D000A00050072A2DE9F041154698464FF0AA
S315080088E0030401F003072DD89600B44000FA06F2F7
S315080088F021461C480EF0D6FC21461B4807FA06F20C
S315080089000EF0D0FC194B1A499DF81800B8F1000F63
S3150800891018BF1946012303FA05F50D60154B1649CC
S31508008920002818BF0B461D60144B9DF81C00C3F8A1
S315080089302054103103F22443002818BF0B461D604B
S31508008940BDE8F081A2F10806B600B44000FA06F2C6
S3150800895021460B480EF0A6FC21460A4807FA06F2FD
S31508008960CEE700BF00C4035008C4035010D4035018
S3150800897010E4035014E4035014D4035000E00350E9
S3150800898004C403500CC403502DE9F04105460F46B4
S315080089901E4690464AB101233022194C8B4002FBF1
S315080089A0004436B304F5825423600F21072F05EBE4
S315080089B0450388BFA7F108044FEA0313114895BF7A
S315080089C0BC00A40004330C3308FA04F2A14018448E
S315080089D00EF068FCB8F1000F09D101233021084ACE
S315080089E0BB4001FB05223EB102F582521360BDE889
S315080089F0F08104F50154D7E702F50152F6E700BF06
S31508008A0000C0035030C00350044A054B002908BF74
S31508008A101346012282401A60704700BF4010045076
S31508008A204020045010B5012104462020FFF7C0F964
S31508008A3001212120FFF7BCF90122114B5A60227847
S31508008A4012069A606178A27842EA01429A61FF2288
S31508008A509A6200229A631A644FF000425A654FF0F0
S31508008A60FF324FF4001103F500531A65054AC2F8A0
S31508008A708011E3781B01DBB282F81533116010BD53
S31508008A800000045000E100E0F8B50125C3B2D1F8B2
S31508008A9000E091F80AC00F7B0C469D40CB7A1D4931
S31508008AA01D4E0D65810001F1A04101F58821C1F82F
S31508008AB004E04FF0300E0EFB00601B05617B43EAB5
S31508008AC00C4343EA475322F003020166C365026773
S31508008AD00EF099FB736D2B437365237A13B1336CD0
S31508008AE02B433364637A13B1B36B2B43B363227995
S31508008AF0A37943EA0243074A93616179E37943EA32
S31508008B00014306498B61044B55639D64BDE8F840F3
S31508008B100EF07FBB002004500000045000100450E3
S31508008B20F8B50125C3B204469D400EF06CFB302211
S31508008B30094B1E6D5F6B02FB04335C6E0EF069FB1E
S31508008B403D4206D1C4F30A1008B9354200D10130B6
S31508008B50F8BD0020FCE700BF000004504FF4803247
S31508008B60054B9A6641F6713203F51C33DA63012226
S31508008B7003F50053DA6070470090005041F67132F1
S31508008B800121064BDA6303F50052D1600022DA634D
S31508008B904FF48032A3F518339A66704700000350E5
S31508008BA0013831289ABF024B185C0020704700BF75
S31508008BB0B4D10108021E30B54FF000000CBF1025D5
S31508008BC0042547F60774084952B9831D51F823301E
S31508008BD0234023B101308542F6D14FF0FF3030BD36
S31508008BE000F11603F2E700BF0080035038B5C2F360
S31508008BF00625044602F0070241B942EA052242F474
S31508008C0040220634074B43F8242038BD114628462F
S31508008C100EF057FB02462846FFF7C2FF163442EA13
S31508008C200022EFE700800350014BD3F89400704709
S31508008C30004000504FF48032064B5A6603F5E6238F
S31508008C409B69C3F38512827003F03F021B0B4270C7
S31508008C500370704700900050014B986CD96C7047B0
S31508008C600080E00F0120034B9B680A3303F01F03C3
S31508008C70984070470080E00F70B5054616461C46BA
S31508008C8021B94FF42070FFF7ADF80146402C1BD0F0
S31508008C9003D8DCB1202C1BD070BD602CFCD104237A
S31508008CA003FB06F2530803EB4113B3FBF2F3094A3D
S31508008CB0203B02EAC303AA6822F06002AA60AA68F7
S31508008CC01443AC60EB61E7E70623E9E71023E7E71F
S31508008CD00823E5E7F8FF7F00012100F5805310B56A
S31508008CE0596040F6AA6341F2050243610023094C24
S31508008CF08360C365C26000F500520361C361C36443
S31508008D009464054C8365A04204BF036543655160BE
S31508008D1010BD00BFFFFF010000C0055070B50D462D
S31508008D20FFF7DAFF012300F580567360AB7C044633
S31508008D301BB1836843F080438360EB7C5BB1244BB3
S31508008D409C4202BF2A7DA3F51033C3F8C821E36D00
S31508008D5043F08003E3652A8A6B7B20461343EA893E
S31508008D601343E3602B7BD5E90112FFF785FF6B7D83
S31508008D701BB1A36843F48033A360AB7D1BB1A36822
S31508008D8043F40043A360EB7D2A7E1B07120502F419
S31508008D90E00203F0E0431343A3656B7E9A1E012AA3
S31508008DA04FF0020209D80B49032BC1F8202709D135
S31508008DB00423F3652B78636170BD0749012BC1F85D
S31508008DC02027F4E7042204F50053DA65F2E700BF2A
S31508008DD000C0055000D0035000E00350034B5A680A
S31508008DE0D20702D5DA69002AF9D1704700800A50FD
S31508008DF0054B9A689107FCD45A689207F9D4DA6940
S31508008E00002AF6D1704700BF00800A5008B5FFF760
S31508008E10E5FF0222014B1A6108BD00BF00800A5017
S31508008E2008B5FFF7E5FF0122024B03F580514A60BA
S31508008E301A6108BD00800A5008B5044B5968012913
S31508008E4003D1FFF7E3FF024B596008BD00800A50C3
S31508008E5000A00A5010B5064CFFF7CAFF6368012B3D
S31508008E6003D1FFF7E9FFFFF7C3FF0378E36010BDFF
S31508008E7000800A50B8B94A680B7812B1127843EAEA
S31508008E80C2034A7843EA42038A6812B1127843EA6F
S31508008E9082138A7843EA8203CA6812B1127843EACF
S31508008EA04223014A9364704700800A5008B9014B6F
S31508008EB05964704700900A5008B9014B59647047C5
S31508008EC000A00A5008B9014B1964704700A00A505F
S31508008ED010B9024B186C70470020704700800A5082
S31508008EE048B911B1012903D07047044BD86C7047B3
S31508008EF0024B186D70470020704700BF00800A506B
S31508008F0040B911B1012903D07047034BDA647047A1
S31508008F10014B1A65704700BF00800A5038B50446F1
S31508008F20054D13F0D6FB0FCC0FC594E8030085E872
S31508008F300300002038BD00BFF036002047F6FF7357
S31508008F409A42F0B56FD002296FD8394B5B5C012B7A
S31508008F506BD8384DDF0005EBC30415F83330A1781C
S31508008F60012B13D10025E078401AA84202D80844FC
S31508008F70C0B2F0BD431B6668A0EB530336F9136015
S31508008F809642D4BF1D4603F1FF30EEE7606800281D
S31508008F90EFD0B0F90040944204DBB0F902409442A5
S31508008FA0B8BF144683883D44FF2B19BFC8224FF02B
S31508008FB0280CB0F90620B0F908C0A2EB04030CBFD0
S31508008FC00126002693FBFCF333446E781BB29E42BF
S31508008FD001DD002B01DA731E1BB24FF47A7C0133D4
S31508008FE09BB2071D5D1E2DB24FEAC50E00EBC505E7
S31508008FF0EA88AD689E4214FB025222EAE27202F146
S315080090005C02B2FBFCF204DD37F8335001339542BB
S31508009010E8D200EB0E039888904228BF1046884293
S3150800902038BF0846A4E7FF20A3E70020A1E700BF52
S31508009030E6D10108F03600200229F0B555D82C4BA8
S31508009040585C012851D82B4C04EBC00114F83000A9
S315080090504B6801280FD1C8788C78904294BFC4EB2E
S315080090600001C4EB0201001BCAB28242C8BF00223B
S3150800907033F91200F0BD002B37D08878904202D31E
S31508009080B3F90200F6E7CC78B3F900009442F1D9B7
S315080090904C789988013CA1F1FF06714203F1040559
S315080090A0E4B2714103F10C07CEB2B44216D805EB0F
S315080090B0C1014FF47A756A43B1F902404968521AF8
S315080090C004EBD47102EB610292FBF4F29042D1DB1D
S315080090D0B3F902009042CDDC10B2CBE737F831C0C5
S315080090E04E1C9445E3D33146DEE70348C2E700BF8A
S315080090F0E6D10108F03600200080FFFF0148FFF79F
S315080091000DBF00BFECD101087FB50222084B094903
S31508009110CDE901234FF00073CDE90313072301A915
S315080091204FF0FF30059313F03AFB07B05DF804FBE8
S31508009130006A1800000206004FF48062014B002006
S315080091409A667047009000504FF48062014B0020E9
S315080091509A66704700A0005008B5B0B14FF4806217
S315080091600B4B9A660EF0F2F84FF098435A6CD202FF
S31508009170FCD54FF48062586D064B10F470209A6641
S3150800918004D0BDE808400EF01DB9212008BD00BF77
S315080091900090005000A000502DE9FF474FF000084E
S315080091A00E4617460446CDF80080002859D022B945
S315080091B00025284604B0BDE8F087002951D032F0D2
S315080091C0030902F0030A1FD04FF0E063C0E9003834
S315080091D001230191C0F808800293C0F81C8049F069
S315080091E0005301A903930EF09EF8494620460EF057
S315080091F0A4F82046FFF7B0FF054628B14A4641467F
S31508009200304612F008FAD4E7BAF1000FD0D04FF082
S3150800921000084FF0E063C4E900380123CDF804D014
S315080092200293114B204601A9C4F80880C4F81C8093
S3150800923003930EF078F8042120460EF07EF82046B7
S31508009240FFF78AFF054608B13A46D8E7009A4E4422
S31508009250EB00013522FA03F3AA4506F8013BF7D1DC
S31508009260A6E72125A5E700BF040000202DE9F04167
S31508009270012905460E4690461F4692B04AD804680C
S3150800928024F04003802B02D0B4F5807F45D11C2200
S3150800929000210BA812F0BFF9234A244B0121012E05
S315080092A008BF13460A932B1D0193E408204B44F08C
S315080092B0005402910AA80394CDF8108005910693EC
S315080092C00797089101A909930EF023F804A90AA89B
S315080092D00EF01FF807A90AA80EF025F829680AA8AB
S315080092E0C9080EF02AF810210AA80EF026F8FFF78A
S315080092F023FFA8B90AA80EF029F84FF098435A6C2C
S31508009300D202FCD55C6DFFF71FFF04F4702012B083
S31508009310BDE8F0816FF02000F9E76FF07100F6E71D
S315080093204FF0FF30F3E700BF00010004000101041D
S315080093301000002030B5154B87B00293144B0390EC
S31508009340049346F611030D46059300F023F81428F6
S31508009350044616D168460EF0DBF84FF0A843032200
S3150800936002A95A6319601D619A63DA6B9207FCD1E8
S31508009370142C02D168460EF0D9F800F03FF80446DE
S3150800938001E00028E9D0204607B030BD08370020A4
S315080093900400002038B5164B5A6E42F004025A668D
S315080093A0D3F8802242F00102C3F88022114B5B6891
S315080093B0C3F3080343B14FF0A842D36B13F0430F2E
S315080093C0FBD11424204638BD4FF0A843DC6B14F0BB
S315080093D04304FBD1084D2B681BB90421284600F02D
S315080093E0B9FC2B68013343F000432B60EAE700BF62
S315080093F00080005000ED00E008370020014B0020F7
S315080094005B68704700ED00E007B5094B18689A8855
S315080094109B7900906846ADF804208DF80630FFF772
S31508009420C5F90C20FFF7FAF9002003B05DF804FB34
S3150800943044D8010813B50024064A6846536F43F01A
S315080094400103536700948DF80440FFF7F7F82046A8
S3150800945002B010BD0040005030B58BB06C46174DB9
S315080094600FCD0FC40FCD0FC495E8030084E80300A1
S31508009470134BD3F84C2112031CD5A3F5FE431C88C5
S315080094804FF6FF739C4208BF64248DF81940FEF717
S315080094909FFF204480F308008DF818000948FDF75F
S315080094A05BFA6846FEF7D4FE3220FEF7DBFF0020A3
S315080094B00BB030BDD3F85041E4B2E6E74CD801080A
S315080094C00080E00FC017530230B5094D87B001ACD4
S315080094D00FCD0FC42B6801A8236025238DF805300E
S315080094E0FEF77CFF3220FEF7B7FF002007B030BD3D
S315080094F074D801086FF00403502110B50A480B4CC4
S3150800950013F0800F03F1010207D123444C2A83F894
S3150800951000131346F4D1002010BD03F00F03043BDB
S31508009520034419761346EBE700ED00E000E100E09E
S3150800953000F00CB800F00AB800F008B800F006B859
S3150800954000F004B800F002B800F000B872B61EF0D9
S31508009550080F09D01EF0040F0DD0DFF850E0AEE872
S31508009560FF1F6FF002000CE0DFF840E0AEE8FF1FD7
S315080095706FF00E0005E0DFF834E0AEE8FF1F6FF08D
S3150800958006006946EFF309828EE807008646084812
S31508009590084C854501D3A54501D384F3088803F013
S315080095A02DFF84F3088803F00BFF0000001000204D
S315080095B04000002000100020BFF35F8F074B5A6A57
S315080095C022F480325A62D3F8942022F00102C3F8BA
S315080095D09420BFF34F8FBFF36F8F704700ED00E005
S315080095E070B52948294CFFF7E7FF8442284D2949D9
S315080095F019D1D5F8C03023F0FF0343F0A003C5F80E
S31508009600C0304FF080430A68214D234EC5F8982094
S3150800961043F0010301328442C5F89C60C5F8A030C6
S315080096200A601ED00DE0D5F8C02020F01F03203BAD
S3150800963022F0FF0242F0A002B3F1005FC5F8C02095
S31508009640E1D2164B0A68124823F01F0343F00303BE
S31508009650C0F89820C0F89C30114B0132C0F8A030F1
S315080096600A60BFF35F8F0522094BC3F894205A6A34
S3150800967042F480325A62BFF34F8FBFF36F8FBFF346
S315080096804F8FBFF36F8F70BDE01200208C1400203F
S3150800969000ED00E00C37002003000020AB1400208A
S315080096A0E1FFFF3FF8B51446FFF786FF1F2C27D9C1
S315080096B00027C2062A4D1CBF20F01F0020302A684A
S315080096C0CB06284B18BF21F01F01FCB2A2422BD8AB
S315080096D0D3F8C04020F01F0024F47F4444F480747B
S315080096E021F01F01C3F8C04040F00300C3F89820DA
S315080096F041F003010132C3F89C00C3F8A0102A60A8
S315080097000020BFF35F8F0522164BC3F894205A6AD0
S3150800971042F480325A62BFF34F8FBFF36F8FBFF3A5
S315080097204F8FBFF36F8FF8BDC3F89840D3F89C40AE
S31508009730D3F8A06024F01F04A04226F01F0601D12A
S31508009740B142DDD0B04201D8A14207D2D3F8984041
S31508009750013724F0FF04C3F89840B6E72820D0E77D
S315080097600C37002000ED00E030B50E4C416123684F
S315080097708BB9206083600DE0891A9A681D4641619D
S315080097806AB113465A698A42F6D935B1A860521A9F
S3150800979083605A6130BD0025F4E72060F7E79860DA
S315080097A08260F7E71837002038B500F069FA002517
S315080097B0084B094C1A682368C31A2AB123B15169A0
S315080097C0994203D3C91A5161206038BD55615B1AA5
S315080097D09268F2E7183700201437002038B5134D81
S315080097E02B685B6993B1124A022014681C440DF079
S315080097F0FEFE204600F04CFA00230E492A680B703C
S31508009800D088800709D501230B7038BD02200DF0DA
S31508009810EEFE022000F08AFAEEE79268002AF4D0FB
S3150800982050690344012BEBD9EFE700BF1837002036
S31508009830143700208848002070B516469DF8142075
S31508009840C0E903360271049ABDF818300260002296
S3150800985004460D468260C380EEB900F011FA28442A
S31508009860A0619DB12E460DF0C3FC0546FFF79CFF8F
S3150800987031462046FFF778FF104B1B68A34201D1FB
S31508009880FFF7ACFF28460DF0B7FC02E0E368656118
S315080098907BB9002070BD00F0F3F93044A061002DBB
S315080098A0E0D1E3686561002BDDD020462168984742
S315080098B0D9E7204621689847EBE700BF183700200C
S315080098C000220C490B687BB183420AD183687AB1BE
S315080098D0936083681BB15A6941690A445A6100203A
S315080098E070471A469B68EEE70028EFD002207047BB
S315080098F00B60EEE71837002070B50DF084FC144EA7
S3150800990005463478FCB9134B1C60134B1C60134B8B
S315080099101C8000F083F901200DF069FE0DF09BFE16
S315080099200F4B0246186020B928460DF072FC23201A
S3150800993070BD234640F2E7310A4803F033FF0A4B6D
S3150800994018600123337028460DF063FC0020EFE70A
S315080099508948002018370020143700208047002047
S315080099601C37002018FCFFFF1037002070B504468E
S3150800997040B30DF03DFC144E0546FFF715FF306861
S31508009980A04209D02046FFF79BFF0446B0B12846FF
S315080099900DF032FC204670BDFFF792FF0446002802
S315080099A0F5D133683BB9022000F0AAF928460DF034
S315080099B023FC0024EEE7FFF711FFF7E73368002BD7
S315080099C0F4D1F0E72224E5E71837002038B50C462D
S315080099D00546A8B1A1B100230B700DF014FC0121B6
S315080099E0084B1B6833B90DF014FC002038BD9D42A6
S315080099F004D121702278002AF9D0F4E79B68F1E7B0
S31508009A002220F3E71837002070B50DF0FCFB064658
S31508009A1000F036F9084B04461D880120ADB20DF05A
S31508009A20EFFD18B100F02CF90446013530460DF06B
S31508009A30F0FB2046294670BD80470020F8B50C4B40
S31508009A4005461B680E4683420FD3002440F2E730D2
S31508009A502146084B4FF47A721F680023E5FB07017D
S31508009A6003F0A0FE30602046F8BD2120FCE700BFC9
S31508009A70103700201C370020014B1868704700BFBC
S31508009A801037002038B5154B14468342144B8B41CA
S31508009A9021D3144B1A68F2B14FF47A75A0FB05036B
S31508009AA005FB0131531E134211D1B2FA82F2C2F1FB
S31508009AB01F05531CD24301FA03F3E84021FA02F2C8
S31508009AC018431043E940C4E90001002038BD0023CB
S31508009AD003F068FEF7E72120F8E700BFEFA7C64BBB
S31508009AE0378941001C370020C2072DE9F047044694
S31508009AF00BD5474A138801339BB21380FFF754FEF0
S31508009B00444B1B680BB1FFF769FEA3077ED50DF022
S31508009B107AFB4FF0000905464E46FFF745FEC84654
S31508009B203C4F3C680CB163698BB100223A4B012E5D
S31508009B301A7003D119F0020F18BF1E70002C61D0DD
S31508009B40FFF74CFE2846BDE8F0470DF062BB2346FA
S31508009B505A693AB91A792179914288BF1C469B6895
S31508009B60002BF5D128460DF054FB2569DDB100F030
S31508009B7087F8A269A0EB02094FEAE9734D4578EB2D
S31508009B80030311DA23691344A361E368B4F8069062
S31508009B90013613B12046216898470DF034FB054677
S31508009BA0FFF702FEBDE7A9460DF02DFB82462046CB
S31508009BB0FFF786FE50460DF02CFB2369002BE4D0F8
S31508009BC0A38BB5EB090533B1E28B13449BB2B3F50E
S31508009BD07A7F0FD2E3830DF016FB8146294620468D
S31508009BE0FFF7C2FDA369226948461344A3610DF035
S31508009BF010FBCAE7A3F57A73E383A369013D013B2A
S31508009C00A361E8E7022000F07BF89BE7BDE8F08750
S31508009C1080470020183700208748002010B501210A
S31508009C20002486B03E20ADF80810CDE903448DF82F
S31508009C3004408DF80A400594FEF7BAF801A8FFF724
S31508009C4009F9204602A98DF80840FFF713F92046BE
S31508009C500F21FFF731F90F212046FFF733F9FFF7F8
S31508009C60DFF8FFF7BBF80822034B9C61034BC3F8E8
S31508009C7088219A6006B010BD00800A5000E100E015
S31508009C8008B5FFF7ABF8014B986908BD00800A5084
S31508009C90F8B504460DF0ACFA0746FFF79FF8164BE1
S31508009CA09D690DF0A0FC06460020FFF711F9830711
S31508009CB004D4731B032B01D8AE420FD10021631BBA
S31508009CC0022B98BFEC1C0846B4F1FF3F2CBF224676
S31508009CD0621EFFF715F902200DF089FC38460DF0D3
S31508009CE08BFA064A137833B103498B6C43F00103A8
S31508009CF08B6400231370F8BD00800A50D712002029
S31508009D00830700F0010109D50122064B41F0020143
S31508009D101A70054A936C23F0010393640020FFF739
S31508009D20CBB800BFD712002000800A50830742BF75
S31508009D300222014B1A64704700900A5010B50A4671
S31508009D40044619B1024B00211B68984710BD00BF95
S31508009D50E010002037B50B4D0C462B787BB100235D
S31508009D600A460193014601AB281D0DF0F8FB20B900
S31508009D70019BA34218BF6FF0930003B030BD6FF08C
S31508009D808800FAE72037002008B500F037F8064BB8
S31508009D905A7812B10022C3E90122BDE808400C2115
S31508009DA00148FFF7CBBF00BF2037002070B50E4D26
S31508009DB02B7893B90DF0C8FB044688B90DF0CDFB96
S31508009DC0044668B902230126C5E90100AE706B7026
S31508009DD000F00CF8044618B92E700024204670BD11
S31508009DE0FFF7D2FFFAE700BF203700200122024B17
S31508009DF0002083F8DC2070472C37002070B5094C0A
S31508009E0000252646042120460DF07CFC0135204617
S31508009E100DF05EFC052D04F12C04F3D1002386F821
S31508009E20DC3070BD2C37002010B5044602F0C0FFA8
S31508009E302046BDE81040014901F050BA597701089B
S31508009E4038B5084DD5E8AF3F13F0010408D12846C8
S31508009E5011F0D6FA20B1044B28461C6011F0D5FA49
S31508009E60014838BD0C3800201038002070B513485A
S31508009E70D0E8AF4F14F0010418D111F0C1FAA8B117
S31508009E800F4D2E4646F8044B301910220021103487
S31508009E9011F0C1FBA02CF7D10B220A4B013A194647
S31508009EA003F1100304D1054811F0AFFA044870BD58
S31508009EB0286843F8100C2960F0E700BF1438002022
S31508009EC0183800201C380020014B1870704700BF56
S31508009ED08A4800202DE9F041884615461E460DF0B1
S31508009EE09CFC074650B35EB30379990748BF86F8CA
S31508009EF00080C3F34004037948BF01245A070ED5EE
S31508009F00114B294693F900000EF0E2FF822302B2B4
S31508009F10C2EB0222B2FBF3F232559CB901243B791B
S31508009F201B0708D582228235C5EB0525B5FBF2F558
S31508009F30631C3555DCB22046BDE8F0810446FAE7D5
S31508009F403446F8E70224F6E78A48002070B5049DEF
S31508009F500C46014600B12DB9AB21064B064A074807
S31508009F6003F0B0FD0493284613462246BDE8704028
S31508009F700EF069BD88D801086BD90108FAD801081E
S31508009F8008B528B9E421074B074A084803F09AFDA3
S31508009F90038823F4FF4343F45063038004230370C8
S31508009FA0062008BDCFD90108E0D90108FAD801086A
S31508009FB0131D70B5DBB2144628B9F2210D4B0E4AB3
S31508009FC00E4803F07FFD068803F07F0326F4FF465C
S31508009FD0068003709B238370B823C370EA2303713A
S31508009FE00023437111B1063011F020FBA01DC0B249
S31508009FF070BD00BFCFD9010812DA0108FAD80108E6
S3150800A000004870475FDA0108014802F0ADBB00BF9F
S3150800A010E814002008B5836923B1034802F0AAFBB7
S3150800A020002008BD0D20FCE7E8140020836913B161
S3150800A030024802F0C5B90D20704700BFE814002099
S3150800A04008B5836923B1034802F0A2FB002008BDC6
S3150800A0500D20FCE7E8140020836913B1024802F0DA
S3150800A06071BD0D20704700BFE8140020836907B54D
S3150800A07053B1684601220EF0A5FD6946034802F071
S3150800A080DFFD03B05DF804FB0D20FAE7E8140020B5
S3150800A090836913B1024802F083BD0D20704700BFE3
S3150800A0A0E8140020836907B553B1684601220EF00B
S3150800A0B089FD6946034802F0F9FD03B05DF804FB23
S3150800A0C00D20FAE7E814002008B5836923B1034890
S3150800A0D002F084FD002008BD0D20FCE7E8140020EE
S3150800A0E008B5836923B1034802F0FCFD002008BDCA
S3150800A0F00D20FCE7E81400200FB407B504AB53F8AD
S3150800A100042B01210448019300F008F803B05DF818
S3150800A11004EB04B0704700BFA3DA0108F0B50C469B
S3150800A1200546ABB0164604A9962202A81F460DF0AE
S3150800A130D7FC134B13491A5D02A80DF0F9FC0E2142
S3150800A14028460DF0C2FC104B0E22034400930F491B
S3150800A1502B4602A80E4D0DF0EBFC3A46314602A8F6
S3150800A1600DF0C5FC29460B4A02A80DF0E1FC2A466B
S3150800A1701021204604AB00F0BBFF2BB0F0BD00BF9A
S3150800A180BBDA0108ACDA0108C1DA0108B2DA01085B
S3150800A19089E70108BCE1010837B54FF6FF720C4D97
S3150800A1A004462B88934200D1FEE753B904210DEBF0
S3150800A1B0010010F0FAFE00B1FEE7019905480DF01E
S3150800A1C05DFC20462B8801332B8003B030BD00BFD1
S3150800A1D082470020BC380020034B1B8803B9FEE7E2
S3150800A1E002480DF055BC00BF82470020BC3800204D
S3150800A1F0036823B90160044849600DF0F1BB5A6849
S3150800A2004A60596001607047E814002043680146B7
S3150800A21013B90248FFF7ECBF704700BFEC140020E3
S3150800A22070B505680C4625B9BDE870404B68084806
S3150800A23018478B6898476A680146831A002BB8BF87
S3150800A240121A2368A8BF0022BDE8704000481847C4
S3150800A250E814002010B504460DF063FB30B104F194
S3150800A26008000349BDE810400DF0E5BC10BD00BF6D
S3150800A270DCDA01084160024A014602480DF0ACBC2E
S3150800A280D0DA0108F41400200146024A02480DF00B
S3150800A2907DBC00BFD0DA0108F414002010B50446CE
S3150800A2A00DF03FFB30B104F10C000349BDE8104046
S3150800A2B00DF0C1BC10BD00BFD0DA010810B5064CC0
S3150800A2C094F8B0302BB920460DF0F5FE20460DF077
S3150800A2D01CFF014810BD00BFE814002010B44468F4
S3150800A2E02CB122B9234603485DF8044B18475DF89C
S3150800A2F0044B7047E814002038B5856804461DB13C
S3150800A3000248A8470023A36038BD00BFE814002010
S3150800A310436810B504462BB1C3681BB10248984779
S3150800A3200023E36010BD00BFE8140020430708D0EF
S3150800A33000F01803083BDBB2102B04D8034AD05CA4
S3150800A3407047FF2070470520704700BFE8DA01080C
S3150800A35070B51D4E044630460D4611F040F8207083
S3150800A360304602F0CBF9102629460025606104F133
S3150800A37018000EF07CFD32462946C4E9075504F15B
S3150800A380240011F048F93246294604F1340011F048
S3150800A39042F93246294604F1440011F03CF92346B5
S3150800A3A00A4A204643F85C2F63662346084A43F860
S3150800A3B07C2FC4F88430FF2384F8783084F8793009
S3150800A3C00EF02DFC204670BDE81400209DA700085D
S3150800A3D03DA90008014801F081BF00BFE81400202C
S3150800A3E08180014800F024BBF914002007B50A68EB
S3150800A3F0C0F806204A68C0F80A20012268460EF00E
S3150800A400E1FB6946024800F00DFB03B05DF804FB6A
S3150800A410F9140020437810B5044663B9074801F0DB
S3150800A420B7FF50B9054801F0CBFF30B96378012B67
S3150800A43001D001236370002010BDFEE7E814002058
S3150800A44010B504467C30FFF71FFF04F15C00FFF7E8
S3150800A4501BFF064801F0B4FF30B9044801F0A4FF19
S3150800A46010B9637803B1607010BD00BFE81400200E
S3150800A47010B50446044801F0DFFF20B96378022BC3
S3150800A4801CBF0223637010BDE814002038B50123F1
S3150800A490044603FA01F100200DF008FB4FF4A073FF
S3150800A4A003FB00F5A37BDB070BD56369074899799E
S3150800A4B001F0C2FF294604F15C00BDE838400DF002
S3150800A4C0DBBB024801F07CFFF4E700BFE81400207C
S3150800A4D0437810B503F0FB03032B044625D1027815
S3150800A4E04369D20605D49979104801F0A5FF00B151
S3150800A4F0FEE76378042B1CBF04236370E3691BB172
S3150800A5000121226A606998476169094800F096FA4C
S3150800A5100D2808D16169CB6933B100230448C1E924
S3150800A520063300F08BFA00B1FEE710BDE8140020F0
S3150800A530F9140020437810B5044683B1033B042B75
S3150800A5400DD903789B070CD5074802F071F9637893
S3150800A550052B01D1002010BD05236370FAE70D20F5
S3150800A560F9E70C20F7E700BFE814002010B50378D8
S3150800A57004469B0700D5FEE7104802F0C3F87F287B
S3150800A58006D094F90F307F2B01D0984200DDE07396
S3150800A59010F0FBFC2369C01A002808DA216E04F1C2
S3150800A5A05C004FF4FA32BDE810400DF05FBB204660
S3150800A5B094F90F10BDE810400EF07BBBE81400209C
S3150800A5C02DE9FF4708290546DDE90C890F4692461D
S3150800A5D01C4603D011F0EF0F13D0FEE780F8582081
S3150800A5E000F124060FCB86E80F0005F1340698E83B
S3150800A5F00F0086E80F0005F1440699E80F0086E883
S3150800A6000F0028460EF05EFB48B9CDE901902346B7
S3150800A610524639460348CDF8008002F017F904B0CF
S3150800A620BDE8F087E81400202DE9F3411E460446EC
S3150800A6305C300D461746FFF727FE0E2E3DD004D890
S3150800A640002E3AD00B2E3AD0FEE70F2EFCD1002171
S3150800A65095F823305B0704D5AA7904F118000EF0A3
S3150800A66007FCB4F868301BB1374810F0B3FE6067D2
S3150800A670294620460EF08DFB0023A3702EBB00232F
S3150800A68004F118080093E3783246294640460EF04E
S3150800A690F0FB6378022B54D195F82210AB798B42E4
S3150800A6A002D0294801F0C8FE33463A4629464046B4
S3150800A6B002B0BDE8F04100F04DB90121C8E72946CE
S3150800A6C020460EF066FB0023A37020460EF000FB22
S3150800A6D00246E37804F11800002AD0D095F8212024
S3150800A6E09A42CCD901222946009232460EF0C1FB85
S3150800A6F0E3780E2E03F10103E37095F8233043F057
S3150800A700020385F8233016D163782046062B18BF36
S3150800A710062394F8591018BF6370FFF7B7FE94F82C
S3150800A72059300133DBB2052B28BF052384F859308D
S3150800A73002B0BDE8F081204602B0BDE8F0410EF057
S3150800A740A9BA02236370A7E7E8140020437810B576
S3150800A750033B0446042B1DD8DFE803F0030718144F
S3150800A7600300BDE81040FFF7B3BE43690A4899796C
S3150800A77001F062FE204661690E23BDE81040002202
S3150800A780FFF752BFBDE810400EF084BABDE810408E
S3150800A790FFF7ECBE10BD00BFE81400200148FFF724
S3150800A7A0D5BF00BF0C15002010B504463AB1426D5E
S3150800A7B08A4238BF41650EF085FA50B110BD616511
S3150800A7C00EF080FA0028F9D1BDE81040034802F0DF
S3150800A7D071B80248BDE8104002F078B8E8140020C5
S3150800A7E02DE9F843A023DFF878800446B0F86850CE
S3150800A7F0404616465D430F4610F0ECFD636F6D0844
S3150800A800A0EB0309404610F0EFFD94F87830134AA0
S3150800A8100344A3FB09014FEAE37C09FB0C1100235F
S3150800A82002F0C0FF94F87930814603EB8303404673
S3150800A8305C0010F0DEFD03B203EB830304EB430474
S3150800A84004EB090000F54673AB4294BF3B603D60DC
S3150800A850854294BF35603060BDE8F88340420F00FA
S3150800A860E81400202DE9F3410446694601AAB0F828
S3150800A8706850FFF7B5FF94F86A30216FDA09009E31
S3150800A88004F17C000FD06FF3C71384F86A30891B74
S3150800A890FFF7F0FC6378082B4BD1274802B0BDE8D8
S3150800A8A0F04101F08DBDA0235D4394F90030019F6E
S3150800A8B0002B25DA891B2944FFF7DCFC236FA6F554
S3150800A8C0167600969E1B236F1B48E9182167DDF84C
S3150800A8D0008002F011F894F900306278002B1CDA37
S3150800A8E012F0FD0F25D0324694F86A10124808EB8C
S3150800A8F0070301F07F0102B0BDE8F04101F0DABDBF
S3150800A9003944FFF7B7FC94F86A3043F0800384F8BB
S3150800A9106A3010F048FB0646D5E7082A09D194F8AC
S3150800A9206A10054801F07F0102B0BDE8F04101F068
S3150800A93083BD02B0BDE8F081E81400200148FFF7A6
S3150800A94091BF00BF0C1500200148FFF7C7BC00BF28
S3150800A950FC1400200148FFF7CFBC00BFFC14002000
S3150800A9600148FFF7D5BC00BFFC140020002370B5D2
S3150800A97019464FF6FE722A4890B001F0B7FF014615
S3150800A98000B1FEE7264801F003FF254802F026F944
S3150800A990234802F0A7F9224810F01EFD48B12048C6
S3150800A9A001F00EFD00B1FEE71D4801F0FDFC00B107
S3150800A9B0FEE700240CAD4FF6FF71194801F08EFC36
S3150800A9C029461748CDE90C4401F0A0FC4FF6FE7164
S3150800A9D0134801F0C9FC102221460DEB020008AE0F
S3150800A9E010F019FE21461022304610F014FE2146BA
S3150800A9F01022284610F00FFE2246214604ABCDE968
S3150800AA0001540748009601F021FF2146044801F049
S3150800AA1051FF2146024810B0BDE8704001F0AABEB9
S3150800AA20E8140020014801F071BC00BFE8140020BA
S3150800AA30014801F099BC00BFE8140020014801F064
S3150800AA40E5BD00BFE814002001480EF0D0B900BFEC
S3150800AA500C15002001480EF02BB900BF0C1500207C
S3150800AA600148FFF7E1BD00BF0C15002001480EF0B4
S3150800AA7020B900BF0C1500200048704700F8FF07F2
S3150800AA807E2938B505460C4600680AD87C2903D8BD
S3150800AA9001F0FD03112B06D18388012B08D803206A
S3150800AAA005E0F829F7E721460EF01DFA40B138BD52
S3150800AAB07D210EF018FA286884F020010EF013FAAA
S3150800AAC0AA88054B5440E4B233F81430002083EAD0
S3150800AAD01223AB80EBE700BFFADA0108F8B50446A3
S3150800AAE00D468E18AE4200D1F8BD237815F8011B25
S3150800AAF0012B0BD0022B3CD0002BF3D17E29F1D1B0
S3150800AB00012323704FF6FF732361EBE77D2915D0E8
S3150800AB107E2916D060688788002F40D0228A234F66
S3150800AB2082EA0103DBB237F8133083EA1223238261
S3150800AB300EF0D9F9638A01336382D3E702232370BF
S3150800AB40D0E7638A002BDDD0012B10D04FF2B80373
S3150800AB50228A9A420BD1002163681A68023A1A605F
S3150800AB609A8802329A80D4E902309847CAE70621C1
S3150800AB70F9E76068878897B1228A81F0200182EA1E
S3150800AB8001030A4FDBB237F8133083EA1223238214
S3150800AB900EF0A9F9638A013363820123CFE7032103
S3150800ABA0A368E068984727709CE700BFFADA0108AF
S3150800ABB0002330B5174C25688D4224D16568954227
S3150800ABC021D1C3F12004D0E90225A3F1200105FA19
S3150800ABD004F4DA40224325FA01F10A4312F0010F80
S3150800ABE0C3F12004A3F120020CD1012121FA04F4B7
S3150800ABF001FA02F222439940D0E900430C43134379
S3150800AC00C0E9004330BD0133DBB21B2B04F10C0451
S3150800AC10D1D1F7E700DD01082DE9F04700244FF010
S3150800AC20010C26461D4D95F808E0BEF1000F22D00E
S3150800AC302B688B421FD1D0E902A9A4F12003C4F1E5
S3150800AC4020062CFA06F60CFA03F333430CFA04F73B
S3150800AC506FEA0708DE43BAB14AEA070749EA030377
S3150800AC60C0E90273D0E9007307EA08073340C0E970
S3150800AC70007331B9764601341B2C05F10C05D2D187
S3150800AC804EB10020BDE8F08708EA0A0306EA09067D
S3150800AC90C0E90236EDE70720F4E700BF00DD01084A
S3150800ACA0002230B50F4B1C7A9CB11C688C4210D11F
S3150800ACB0C2F12004D0E90235A2F1200123FA02F0FC
S3150800ACC005FA04F4204325FA01F1084300F00100CF
S3150800ACD030BD0132D2B21B2A03F10C03E3D10020A6
S3150800ACE0F6E700BF00DD0108F8B50646044600256C
S3150800ACF046F8041B4FF400620F4600F1D1013046B6
S3150800AD000EF09DF9266504F1540304F17402C3E9B3
S3150800AD10005508339342FAD1C4E91E55A4F8745075
S3150800AD2004F180000EF01FFCC82304212F4A84F882
S3150800AD30C810C4E928234FF6FF732D49A4F8A83094
S3150800AD4009682C4BC4F8CC104FF47F410022C4E9A3
S3150800AD502B350023A4F8581904F51761C4E92E23E6
S3150800AD60C4E9302384F89850C4F89C50C4F8B45009
S3150800AD7084F8D05084F8D55884F8D658C4F8505971
S3150800AD80A4F8545984F8565984F85A59C4F85C59A1
S3150800AD90C4F86059C4F86459C4F8685984F86C59F9
S3150800ADA0C1E90023236803B9FEE7134B2246304660
S3150800ADB012491C600EF053F97822002104F6D800D7
S3150800ADC010F029FC7722002104F1B800C4F8D15804
S3150800ADD0FFF7EEFE04F1AC00FFF718FAD7F8AC005F
S3150800ADE0214610F022FB2046F8BD00BF00F8FF07F9
S3150800ADF0FCDC0108E5AE0008C0380020119E0108F9
S3150800AE00014B1868704700BFC03800200138042875
S3150800AE109ABF024B185C0020704700BF44DE010849
S3150800AE202DE9F84FD0E92E321343044604D1012305
S3150800AE3084F86C39BDE8F88FB8300EF0C3FD0025EC
S3150800AE4080464FF00109264FEBB24345EFD2D4E9CD
S3150800AE502E30C5F12001A5F12002EB4000FA01F1E0
S3150800AE600B4320FA02F2134313F0010FC5F1200A2F
S3150800AE70A5F1200602D10C370135E5E73A682ABB69
S3150800AE80D7F804B0BBF1770F06D1206800F026FC8E
S3150800AE90082898BF00F1700B5A46802120460EF00C
S3150800AEA0ECFE0028C3D1D4E92E3209FA06F629FAAF
S3150800AEB00AFA46EA0A0609FA05F123EA010322EA2A
S3150800AEC00602C4E92E321343D5D1B0E794F86C399B
S3150800AED0002BE8D00123802120460EF0E8FEE0E7AB
S3150800AEE000DD0108014B1868FFF79ABFC03800203B
S3150800AEF0022313B5B0F888208DF80730B0F88630ED
S3150800AF0004469A4206D00DF1070180300EF043FB45
S3150800AF1000B1FEE79DF807302068022B19D10CF026
S3150800AF2006FD00234FF47F428021A4F858292046C5
S3150800AF30702284F8523984F85A39C4F85C39C4F84E
S3150800AF406039C4F86439C4F868390EF096FE58B109
S3150800AF50FEE7032B03D10CF0E8FC02B010BD0CF0A1
S3150800AF60E2FC0022014B1A600020F6E7C0380020F8
S3150800AF70002373B505460DF1070180308DF80730BB
S3150800AF800EF009FB044628B99DF8073013B1022BC9
S3150800AF9003D00C24204602B070BD28680CF0CCFC07
S3150800AFA00028F7D095F9593901331BD1D5F8A030C7
S3150800AFB0D3B15A1E1A4017D15B08164602F1010290
S3150800AFC0FAD10A4BB5F8A4202868F1B20CF0CFFCE8
S3150800AFD004460028DED195F8563985F8596985F86A
S3150800AFE05739D7E70D24D5E70724D3E7A9B10008D1
S3150800AFF073B504460E4680300DF107010EF0CBFA04
S3150800B000054690BB9DF80730022B1FD003D9DA1EE0
S3150800B010012A88BF032384F8C83000230C2284F849
S3150800B020D0303146012320460EF041FE94F8C83050
S3150800B030042B17D060B9201D0EF01DF90123C4F8A2
S3150800B040CC0084F89830284602B070BD0123E2E7A8
S3150800B0500A4B1B68C4F8CC30012384F8983084F86E
S3150800B060D060F0E70028EED0F9E70EF0AFFC3146E5
S3150800B070024620460EF001FE0546E4E7FCDC010820
S3150800B08010B5044600680CF082FCB8B10A280DD841
S3150800B0904FF4FA6303FB00F101F55C2101F5346115
S3150800B0A004F15000BDE810400EF05BBB192807D824
S3150800B0B041F28833034903FB0011F1E70249EFE740
S3150800B0C00021EDE7B0DB2300CC3F0D001346074A0D
S3150800B0D010B40446106828B10A4621465DF8044BA8
S3150800B0E00EF0C4BC0D205DF8044B7047C038002034
S3150800B0F00CB470B5A8B02CAB0D460C4953F8042B0C
S3150800B1000E680446962102A8019302F0A3FE0028C1
S3150800B11006DD2EB12A462146304602AB0EF0E5FC86
S3150800B12028B0BDE8704002B0704700BFC0380020A4
S3150800B13010B504460B462A2202490FF007FB2046A3
S3150800B14010BD00BFA8DF010810B504460B4617223C
S3150800B15002490FF0FBFA204610BD00BF94DE010835
S3150800B16010B504460B46032202490FF0EFFA2046B3
S3150800B17010BD00BF70DE010810B504460B46032259
S3150800B18002490FF0E3FA204610BD00BF4CDE010865
S3150800B190014B18680FF08BBBC038002001480068C7
S3150800B1A00FF0A8BBC0380020014B18680FF010BC80
S3150800B1B0C0380020002313B504460DF1070180307E
S3150800B1C08DF807300EF0F7F9014630B99DF80730CB
S3150800B1D020682BB90CF0ADFB0146084602B010BD3D
S3150800B1E00049F7E791B1000870B5044600680D46B6
S3150800B1F00CF0A2FB00B320680CF0A9FBE0B92068AC
S3150800B2000CF0ADFB064610B3014620460FF0DCFCF9
S3150800B210034690B994F856390E49337220680CF0F3
S3150800B220A0FB034648B9C5F3011305F00F0584F8DA
S3150800B230573984F8585970BD0D2318460EF0C6FBC9
S3150800B240294602462046BDE870400EF016BD032387
S3150800B250F3E700BF9DB1000838B504461546FFF769
S3150800B26043FD04F68213C4F87C394FF40063C4F82E
S3150800B270785904F58C5004F58C55A4F8803904F6F1
S3150800B2807C110C3504300DF03BFE28460DF06BFEA4
S3150800B29004F58D51043104F58053881DC3F8A401C3
S3150800B2A04FF400700022A3F8A8010948A3F8A021CA
S3150800B2B0C3E9EC0283F8AC2328462346054A0DF079
S3150800B2C059FE201D224604490DF0C6FE204638BD0B
S3150800B2D0F9AE010887AF01081BAE010810B5064C88
S3150800B2E00A4601462046FFF7B7FFFFF789FD844265
S3150800B2F000D0FEE710BD00BFA01500202DE9F041E3
S3150800B3000C46A0B016461F460EF0AAFB234680211F
S3150800B310194A684602F0A8FC684610F094F969468E
S3150800B32002460020FFF7D2FE6D460024DFF8508063
S3150800B330BC4213D1A4B204EB440410490DEB04003B
S3150800B34010F089F9684610F07EF90DF10101421EE8
S3150800B3500020FFF7BBFE20B0BDE8F081292CEAD01B
S3150800B360A4EB84012846335D4246803102F07CFC1A
S3150800B37001340335DCE700BFA0E10108BAE10108A2
S3150800B380B4E1010813B5144622B902B0BDE810406D
S3150800B39010F049B8538812889A420ED20023012227
S3150800B3A000934FF0FF310A4B11F0DAF800B1FEE7CF
S3150800B3B023880133238002B010BD002BFBD0002266
S3150800B3C0044B1A7002B0BDE8104011F0D7B800BFA0
S3150800B3D085B300088B48002030B585B0044608467A
S3150800B3E003A91546FEF72AFB40B90123044ACDE90D
S3150800B3F0000303992B4620460CF0D1F805B030BD62
S3150800B40005B4000838B505460C4619B9BDE83840F4
S3150800B41010F009B84B880A889A420CD2FEF72CFB22
S3150800B420224601462846FFF7D7FF00B1FEE72388E4
S3150800B4300133238038BD002BFCD00022024B1A7042
S3150800B440BDE83840FEF792BA8C4800202022002139
S3150800B450014810F0E0B800BFE43800202DE9F041BB
S3150800B46016460C4600252148FEF780FAA419204BFB
S3150800B47045EB0506C3E900460FF087FD01221D4B83
S3150800B480241A66F1000694421A7076F1000303DA6C
S3150800B490BDE8F0410FF0C7BFFEF7EEFAA04275EB24
S3150800B4A006031ADAFEF7E8FA8046FEF7E5FA2B46AF
S3150800B4B002463146204602F025F90F4F424678806B
S3150800B4C02B46204631463D8002F01CF907481146B6
S3150800B4D03A46FFF781FF38B1FEE72A462146034878
S3150800B4E0FFF77AFF00B1FEE7BDE8F081E4380020F7
S3150800B4F0602900208C4800208847002008B50348AA
